{
  "contractName": "RootChain",
  "abi": [
    {
      "constant": true,
      "inputs": [],
      "name": "lastParentBlock",
      "outputs": [
        {
          "name": "",
          "type": "uint256"
        }
      ],
      "payable": false,
      "stateMutability": "view",
      "type": "function"
    },
    {
      "constant": true,
      "inputs": [
        {
          "name": "",
          "type": "uint256"
        }
      ],
      "name": "exitIds",
      "outputs": [
        {
          "name": "",
          "type": "uint256"
        }
      ],
      "payable": false,
      "stateMutability": "view",
      "type": "function"
    },
    {
      "constant": true,
      "inputs": [
        {
          "name": "",
          "type": "uint256"
        }
      ],
      "name": "exits",
      "outputs": [
        {
          "name": "owner",
          "type": "address"
        },
        {
          "name": "amount",
          "type": "uint256"
        },
        {
          "name": "bond",
          "type": "uint256"
        }
      ],
      "payable": false,
      "stateMutability": "view",
      "type": "function"
    },
    {
      "constant": true,
      "inputs": [],
      "name": "weekOldBlock",
      "outputs": [
        {
          "name": "",
          "type": "uint256"
        }
      ],
      "payable": false,
      "stateMutability": "view",
      "type": "function"
    },
    {
      "constant": true,
      "inputs": [],
      "name": "recentBlock",
      "outputs": [
        {
          "name": "",
          "type": "uint256"
        }
      ],
      "payable": false,
      "stateMutability": "view",
      "type": "function"
    },
    {
      "constant": true,
      "inputs": [],
      "name": "currentChildBlock",
      "outputs": [
        {
          "name": "",
          "type": "uint256"
        }
      ],
      "payable": false,
      "stateMutability": "view",
      "type": "function"
    },
    {
      "constant": true,
      "inputs": [],
      "name": "authority",
      "outputs": [
        {
          "name": "",
          "type": "address"
        }
      ],
      "payable": false,
      "stateMutability": "view",
      "type": "function"
    },
    {
      "constant": true,
      "inputs": [
        {
          "name": "",
          "type": "uint256"
        }
      ],
      "name": "childChain",
      "outputs": [
        {
          "name": "root",
          "type": "bytes32"
        },
        {
          "name": "created_at",
          "type": "uint256"
        }
      ],
      "payable": false,
      "stateMutability": "view",
      "type": "function"
    },
    {
      "inputs": [],
      "payable": false,
      "stateMutability": "nonpayable",
      "type": "constructor"
    },
    {
      "anonymous": false,
      "inputs": [
        {
          "indexed": false,
          "name": "depositor",
          "type": "address"
        },
        {
          "indexed": false,
          "name": "amount",
          "type": "uint256"
        }
      ],
      "name": "Deposit",
      "type": "event"
    },
    {
      "constant": false,
      "inputs": [
        {
          "name": "root",
          "type": "bytes32"
        }
      ],
      "name": "submitBlock",
      "outputs": [],
      "payable": false,
      "stateMutability": "nonpayable",
      "type": "function"
    },
    {
      "constant": false,
      "inputs": [
        {
          "name": "txBytes",
          "type": "bytes"
        }
      ],
      "name": "deposit",
      "outputs": [],
      "payable": true,
      "stateMutability": "payable",
      "type": "function"
    },
    {
      "constant": true,
      "inputs": [
        {
          "name": "blockNumber",
          "type": "uint256"
        }
      ],
      "name": "getChildChain",
      "outputs": [
        {
          "name": "",
          "type": "bytes32"
        },
        {
          "name": "",
          "type": "uint256"
        }
      ],
      "payable": false,
      "stateMutability": "view",
      "type": "function"
    },
    {
      "constant": true,
      "inputs": [
        {
          "name": "priority",
          "type": "uint256"
        }
      ],
      "name": "getExit",
      "outputs": [
        {
          "name": "",
          "type": "address"
        },
        {
          "name": "",
          "type": "uint256"
        },
        {
          "name": "",
          "type": "uint256[3]"
        }
      ],
      "payable": false,
      "stateMutability": "view",
      "type": "function"
    },
    {
      "constant": false,
      "inputs": [
        {
          "name": "txPos",
          "type": "uint256[3]"
        },
        {
          "name": "txBytes",
          "type": "bytes"
        },
        {
          "name": "proof",
          "type": "bytes"
        },
        {
          "name": "sigs",
          "type": "bytes"
        }
      ],
      "name": "startExit",
      "outputs": [],
      "payable": true,
      "stateMutability": "payable",
      "type": "function"
    },
    {
      "constant": false,
      "inputs": [
        {
          "name": "exitId",
          "type": "uint256"
        },
        {
          "name": "txPos",
          "type": "uint256[3]"
        },
        {
          "name": "txBytes",
          "type": "bytes"
        },
        {
          "name": "proof",
          "type": "bytes"
        },
        {
          "name": "sigs",
          "type": "bytes"
        },
        {
          "name": "confirmationSig",
          "type": "bytes"
        }
      ],
      "name": "challengeExit",
      "outputs": [],
      "payable": true,
      "stateMutability": "payable",
      "type": "function"
    },
    {
      "constant": false,
      "inputs": [],
      "name": "finalizeExits",
      "outputs": [
        {
          "name": "",
          "type": "uint256"
        }
      ],
      "payable": false,
      "stateMutability": "nonpayable",
      "type": "function"
    },
    {
      "constant": false,
      "inputs": [],
      "name": "testingFunc",
      "outputs": [
        {
          "name": "",
          "type": "bool"
        }
      ],
      "payable": false,
      "stateMutability": "nonpayable",
      "type": "function"
    }
  ],
  "bytecode": "0x606060405234156200001057600080fd5b33600460006101000a81548173ffffffffffffffffffffffffffffffffffffffff021916908373ffffffffffffffffffffffffffffffffffffffff1602179055506001600581905550436006819055506200006a620000c7565b604051809103906000f08015156200008157600080fd5b600360006101000a81548173ffffffffffffffffffffffffffffffffffffffff021916908373ffffffffffffffffffffffffffffffffffffffff160217905550620000d8565b6040516108528062002bd783390190565b612aef80620000e86000396000f3006060604052600436106100e6576000357c0100000000000000000000000000000000000000000000000000000000900463ffffffff168063117546c5146100eb57806316b38840146101145780632e7726fb1461014b578063342de179146101785780634237b5f3146101e957806368d6570e146102125780636f84b695146103625780637a95f1e81461038b57806385444de3146103b457806398b1e06a146103fa578063baa476941461044c578063bf7e214f14610473578063c6ab44cd146104c8578063e60f1ff1146104f1578063eaf61eb51461058a578063f95643b11461068e575b600080fd5b34156100f657600080fd5b6100fe6106d4565b6040518082815260200191505060405180910390f35b341561011f57600080fd5b61013560048080359060200190919050506106da565b6040518082815260200191505060405180910390f35b341561015657600080fd5b61015e6106f2565b604051808215151515815260200191505060405180910390f35b341561018357600080fd5b610199600480803590602001909190505061074a565b604051808473ffffffffffffffffffffffffffffffffffffffff1673ffffffffffffffffffffffffffffffffffffffff168152602001838152602001828152602001935050505060405180910390f35b34156101f457600080fd5b6101fc610794565b6040518082815260200191505060405180910390f35b6103606004808035906020019091908060600190600380602002604051908101604052809291908260036020028082843782019150505050509190803590602001908201803590602001908080601f0160208091040260200160405190810160405280939291908181526020018383808284378201915050505050509190803590602001908201803590602001908080601f0160208091040260200160405190810160405280939291908181526020018383808284378201915050505050509190803590602001908201803590602001908080601f0160208091040260200160405190810160405280939291908181526020018383808284378201915050505050509190803590602001908201803590602001908080601f0160208091040260200160405190810160405280939291908181526020018383808284378201915050505050509190505061079a565b005b341561036d57600080fd5b610375610c97565b6040518082815260200191505060405180910390f35b341561039657600080fd5b61039e610c9d565b6040518082815260200191505060405180910390f35b34156103bf57600080fd5b6103d56004808035906020019091905050610ca3565b6040518083600019166000191681526020018281526020019250505060405180910390f35b61044a600480803590602001908201803590602001908080601f01602080910402602001604051908101604052809392919081815260200183838082843782019150505050505091905050610cdb565b005b341561045757600080fd5b61047160048080356000191690602001909190505061103a565b005b341561047e57600080fd5b6104866111a4565b604051808273ffffffffffffffffffffffffffffffffffffffff1673ffffffffffffffffffffffffffffffffffffffff16815260200191505060405180910390f35b34156104d357600080fd5b6104db6111ca565b6040518082815260200191505060405180910390f35b34156104fc57600080fd5b6105126004808035906020019091905050611813565b604051808473ffffffffffffffffffffffffffffffffffffffff1673ffffffffffffffffffffffffffffffffffffffff16815260200183815260200182600360200280838360005b8381101561057557808201518184015260208101905061055a565b50505050905001935050505060405180910390f35b61068c6004808060600190600380602002604051908101604052809291908260036020028082843782019150505050509190803590602001908201803590602001908080601f0160208091040260200160405190810160405280939291908181526020018383808284378201915050505050509190803590602001908201803590602001908080601f0160208091040260200160405190810160405280939291908181526020018383808284378201915050505050509190803590602001908201803590602001908080601f016020809104026020016040519081016040528093929190818152602001838380828437820191505050505050919050506118ce565b005b341561069957600080fd5b6106af6004808035906020019091905050611e9e565b6040518083600019166000191681526020018281526020019250505060405180910390f35b60065481565b60026020528060005260406000206000915090505481565b6000600460009054906101000a900473ffffffffffffffffffffffffffffffffffffffff1673ffffffffffffffffffffffffffffffffffffffff163373ffffffffffffffffffffffffffffffffffffffff1614905090565b60016020528060005260406000206000915090508060000160009054906101000a900473ffffffffffffffffffffffffffffffffffffffff16908060010154908060020154905083565b60085481565b6107a2612937565b60006107ac61294b565b600080600080600954341115156107c257600080fd5b6107d36107ce8c611ec2565b611f1d565b9650600b87511415156107e557600080fd5b600260008e815260200190815260200160002054955060016000878152602001908152602001600020600301600380602002604051908101604052809291908260038015610848576020028201915b815481526020019060010190808311610834575b505050505094506108888786600260038110151561086257fe5b602002015160020260000181518110151561087957fe5b90602001906020020151611fea565b85600060038110151561089757fe5b60200201511415156108a857600080fd5b6108e1878660026003811015156108bb57fe5b60200201516002026001018151811015156108d257fe5b90602001906020020151611fea565b8560016003811015156108f057fe5b602002015114151561090157600080fd5b61093a8786600260038110151561091457fe5b602002015160020260020181518110151561092b57fe5b90602001906020020151611fea565b85600260038110151561094957fe5b602002015114151561095a57600080fd5b8a6040518082805190602001908083835b602083101515610990578051825260208201915060208101905060208303925061096b565b6001836020036101000a0380198251168184511680821785525050505050509050019150506040518091039020935083896000808f60006003811015156109d357fe5b602002015181526020019081526020016000206000015460405180846000191660001916815260200183805190602001908083835b602083101515610a2d5780518252602082019150602081019050602083039250610a08565b6001836020036101000a0380198251168184511680821785525050505050509050018260001916600019168152602001935050505060405180910390209250838960405180836000191660001916815260200182805190602001908083835b602083101515610ab15780518252602082019150602081019050602083039250610a8c565b6001836020036101000a03801982511681845116808217855250505050505090500192505050604051809103902091506001600087815260200190815260200160002060000160009054906101000a900473ffffffffffffffffffffffffffffffffffffffff169050610b248389612032565b73ffffffffffffffffffffffffffffffffffffffff168173ffffffffffffffffffffffffffffffffffffffff16141515610b5d57600080fd5b610bb38c6001600381101515610b6f57fe5b60200201516000808f6000600381101515610b8657fe5b60200201518152602001908152602001600020600001548c8560001916612130909392919063ffffffff16565b1515610bbe57600080fd5b3373ffffffffffffffffffffffffffffffffffffffff166108fc60016000898152602001908152602001600020600201549081150290604051600060405180830381858888f193505050501515610c1457600080fd5b60016000878152602001908152602001600020600080820160006101000a81549073ffffffffffffffffffffffffffffffffffffffff021916905560018201600090556002820160009055600382016000610c6f9190612973565b5050600260008e81526020019081526020016000206000905550505050505050505050505050565b60075481565b60055481565b600080600080848152602001908152602001600020600001546000808581526020019081526020016000206001015491509150915091565b610ce3612937565b6000806000610cf9610cf486611ec2565b611f1d565b9350600b8451141515610d0b57600080fd5b5b6006831015610d50576000610d378585815181101515610d2857fe5b90602001906020020151611fea565b141515610d4357600080fd5b8280600101935050610d0c565b34610d72856007815181101515610d6357fe5b90602001906020020151611fea565b141515610d7e57600080fd5b6000610da1856009815181101515610d9257fe5b90602001906020020151611fea565b141515610dad57600080fd5b846040518082805190602001908083835b602083101515610de35780518252602082019150602081019050602083039250610dbe565b6001836020036101000a03801982511681845116808217855250505050505090500191505060405180910390206082604051805910610e1f5750595b9080825280601f01601f191660200182016040525060405180836000191660001916815260200182805190602001908083835b602083101515610e775780518252602082019150602081019050602083039250610e52565b6001836020036101000a0380198251168184511680821785525050505050509050019250505060405180910390209050600092505b6010831015610f22578082604051808360001916600019168152602001826000191660001916815260200192505050604051809103902090508182604051808360001916600019168152602001826000191660001916815260200192505050604051809103902091508280600101935050610eac565b6040805190810160405280826000191681526020014281525060008060055481526020019081526020016000206000820151816000019060001916905560208201518160010155905050610f82600160055461220d90919063ffffffff16565b6005819055507fe1fffcc4923d04b559f4d29a8bfc6cda04eb5b0d3c460751c2402c5c5cc9109c610fca856006815181101515610fbb57fe5b9060200190602002015161222b565b610feb866007815181101515610fdc57fe5b90602001906020020151611fea565b604051808373ffffffffffffffffffffffffffffffffffffffff1673ffffffffffffffffffffffffffffffffffffffff1681526020018281526020019250505060405180910390a15050505050565b600460009054906101000a900473ffffffffffffffffffffffffffffffffffffffff1673ffffffffffffffffffffffffffffffffffffffff163373ffffffffffffffffffffffffffffffffffffffff1614151561109657600080fd5b5b6110ad62093a804261227290919063ffffffff16565b600080600854815260200190815260200160002060010154101561111157600080600060085481526020019081526020016000206001015414156110f057611111565b611106600160085461220d90919063ffffffff16565b600881905550611097565b6111266006805461220d90919063ffffffff16565b431015151561113457600080fd5b6040805190810160405280826000191681526020014281525060008060055481526020019081526020016000206000820151816000019060001916905560208201518160010155905050611194600160055461220d90919063ffffffff16565b6005819055504360068190555050565b600460009054906101000a900473ffffffffffffffffffffffffffffffffffffffff1681565b6000806111d5612988565b6000805b6111ef62093a804261227290919063ffffffff16565b6000806008548152602001908152602001600020600101541015611253576000806000600854815260200190815260200160002060010154141561123257611253565b611248600160085461220d90919063ffffffff16565b6008819055506111d9565b611269621275004261227290919063ffffffff16565b935060016000600360009054906101000a900473ffffffffffffffffffffffffffffffffffffffff1673ffffffffffffffffffffffffffffffffffffffff1663d6362e976000604051602001526040518163ffffffff167c0100000000000000000000000000000000000000000000000000000000028152600401602060405180830381600087803b15156112fd57600080fd5b6102c65a03f1151561130e57600080fd5b505050604051805190508152602001908152602001600020608060405190810160405290816000820160009054906101000a900473ffffffffffffffffffffffffffffffffffffffff1673ffffffffffffffffffffffffffffffffffffffff1673ffffffffffffffffffffffffffffffffffffffff1681526020016001820154815260200160028201548152602001600382016003806020026040519081016040528092919082600380156113d8576020028201915b8154815260200190600101908083116113c4575b50505050508152505092505b83600080856060015160006003811015156113fb57fe5b60200201518152602001908152602001600020600101541080156114c757506000600360009054906101000a900473ffffffffffffffffffffffffffffffffffffffff1673ffffffffffffffffffffffffffffffffffffffff1663bda1504b6000604051602001526040518163ffffffff167c0100000000000000000000000000000000000000000000000000000000028152600401602060405180830381600087803b15156114aa57600080fd5b6102c65a03f115156114bb57600080fd5b50505060405180519050115b1561180c57826060015160026003811015156114df57fe5b6020020151612710846060015160016003811015156114fa57fe5b602002015102633b9aca008560600151600060038110151561151857fe5b60200201510201019150826000015173ffffffffffffffffffffffffffffffffffffffff166108fc84604001518560200151019081150290604051600060405180830381858888f19350505050151561157057600080fd5b600360009054906101000a900473ffffffffffffffffffffffffffffffffffffffff1673ffffffffffffffffffffffffffffffffffffffff1663b07576ac6000604051602001526040518163ffffffff167c0100000000000000000000000000000000000000000000000000000000028152600401602060405180830381600087803b15156115fe57600080fd5b6102c65a03f1151561160f57600080fd5b50505060405180519050905060016000828152602001908152602001600020600080820160006101000a81549073ffffffffffffffffffffffffffffffffffffffff0219169055600182016000905560028201600090556003820160006116769190612973565b5050600260008381526020019081526020016000206000905560016000600360009054906101000a900473ffffffffffffffffffffffffffffffffffffffff1673ffffffffffffffffffffffffffffffffffffffff1663d6362e976000604051602001526040518163ffffffff167c0100000000000000000000000000000000000000000000000000000000028152600401602060405180830381600087803b151561172157600080fd5b6102c65a03f1151561173257600080fd5b505050604051805190508152602001908152602001600020608060405190810160405290816000820160009054906101000a900473ffffffffffffffffffffffffffffffffffffffff1673ffffffffffffffffffffffffffffffffffffffff1673ffffffffffffffffffffffffffffffffffffffff1681526020016001820154815260200160028201548152602001600382016003806020026040519081016040528092919082600380156117fc576020028201915b8154815260200190600101908083116117e8575b50505050508152505092506113e4565b5050505090565b60008061181e61294b565b6001600085815260200190815260200160002060000160009054906101000a900473ffffffffffffffffffffffffffffffffffffffff16600160008681526020019081526020016000206001015460016000878152602001908152602001600020600301806003806020026040519081016040528092919082600380156118ba576020028201915b8154815260200190600101908083116118a6575b505050505090509250925092509193909250565b6118d6612937565b60008060008060005b6118f562093a804261227290919063ffffffff16565b6000806008548152602001908152602001600020600101541015611959576000806000600854815260200190815260200160002060010154141561193857611959565b61194e600160085461220d90919063ffffffff16565b6008819055506118df565b6009543411151561196957600080fd5b61197a6119758a611ec2565b611f1d565b9550600b865114151561198c57600080fd5b6119c5868b600260038110151561199f57fe5b60200201516002026006018151811015156119b657fe5b9060200190602002015161222b565b73ffffffffffffffffffffffffffffffffffffffff163373ffffffffffffffffffffffffffffffffffffffff161415156119fe57600080fd5b886040518082805190602001908083835b602083101515611a345780518252602082019150602081019050602083039250611a0f565b6001836020036101000a0380198251168184511680821785525050505050509050019150506040518091039020945084611a71886000608261228b565b60405180836000191660001916815260200182805190602001908083835b602083101515611ab45780518252602082019150602081019050602083039250611a8f565b6001836020036101000a0380198251168184511680821785525050505050509050019250505060405180910390209350611b05866000815181101515611af657fe5b90602001906020020151611fea565b620f4240611b2a886003815181101515611b1b57fe5b90602001906020020151611fea565b02019250611b62856000808d6000600381101515611b4457fe5b6020020151815260200190815260200160002060000154858a6122ea565b1515611b6d57600080fd5b611bc38a6001600381101515611b7f57fe5b60200201516000808d6000600381101515611b9657fe5b60200201518152602001908152602001600020600001548a8760001916612130909392919063ffffffff16565b1515611bce57600080fd5b896002600381101515611bdd57fe5b60200201516127108b6001600381101515611bf457fe5b602002015102633b9aca0001019150611c29828b6000600381101515611c1657fe5b602002015161258e90919063ffffffff16565b9050611c5c611c4d8b6000600381101515611c4057fe5b60200201516008546125c9565b8361258e90919063ffffffff16565b915060006002600083815260200190815260200160002054141515611c8057600080fd5b60006001600084815260200190815260200160002060010154141515611ca557600080fd5b816002600083815260200190815260200160002081905550600360009054906101000a900473ffffffffffffffffffffffffffffffffffffffff1673ffffffffffffffffffffffffffffffffffffffff166390b5561d836040518263ffffffff167c010000000000000000000000000000000000000000000000000000000002815260040180828152602001915050600060405180830381600087803b1515611d4d57600080fd5b6102c65a03f11515611d5e57600080fd5b505050608060405190810160405280611da6888d6002600381101515611d8057fe5b6020020151600202600601815181101515611d9757fe5b9060200190602002015161222b565b73ffffffffffffffffffffffffffffffffffffffff168152602001611dfa888d6002600381101515611dd457fe5b6020020151600202600701815181101515611deb57fe5b90602001906020020151611fea565b81526020013481526020018b8152506001600084815260200190815260200160002060008201518160000160006101000a81548173ffffffffffffffffffffffffffffffffffffffff021916908373ffffffffffffffffffffffffffffffffffffffff1602179055506020820151816001015560408201518160020155606082015181600301906003611e8e9291906129cd565b5090505050505050505050505050565b60006020528060005260406000206000915090508060000154908060010154905082565b611eca612a0d565b600080835191506000821415611ef85760408051908101604052806000815260200160008152509250611f16565b60208401905060408051908101604052808281526020018381525092505b5050919050565b611f25612937565b6000611f2f612a27565b6000611f3a856125e5565b1515611f4557600080fd5b611f4e85612617565b925082604051805910611f5e5750595b908082528060200260200182016040528015611f9457816020015b611f81612a48565b815260200190600190039081611f795790505b509350611fa085612691565b91505b611fac826126d9565b15611fe257611fba82612703565b8482815181101515611fc857fe5b906020019060200201819052508080600101915050611fa3565b505050919050565b6000806000611ff88461275f565b151561200357600080fd5b61200c84612790565b91509150602081111561201e57600080fd5b806020036101000a82510492505050919050565b6000806000806041855114151561204c5760009350612127565b6020850151925060408501519150606085015160001a9050601b8160ff16101561207757601b810190505b601b8160ff161415801561208f5750601c8160ff1614155b1561209d5760009350612127565b600186828585604051600081526020016040526000604051602001526040518085600019166000191681526020018460ff1660ff16815260200183600019166000191681526020018260001916600019168152602001945050505050602060405160208103908084039060008661646e5a03f1151561211b57600080fd5b50506020604051035193505b50505092915050565b600080600080610200855114151561214757600080fd5b879150602090505b610200811115156121f557808501519250600060028881151561216e57fe5b0614156121aa578183604051808360001916600019168152602001826000191660001916815260200192505050604051809103902091506121db565b8282604051808360001916600019168152602001826000191660001916815260200192505050604051809103902091505b6002878115156121e757fe5b04965060208101905061214f565b85600019168260001916149350505050949350505050565b600080828401905083811015151561222157fe5b8091505092915050565b60008060006122398461275f565b151561224457600080fd5b61224d84612790565b9150915060148114151561226057600080fd5b600c6101000a82510492505050919050565b600082821115151561228057fe5b818303905092915050565b612293612a62565b61229b612a62565b6040519050601f831680820184810186838901015b818310156122cd57805183526020830192506020810190506122b0565b50858452601f19601f830116604052505050809150509392505050565b60006122f4612a62565b6122fc612a62565b612304612a62565b600061230e612a62565b600080600060418a5181151561232057fe5b061480156123315750610104895111155b151561233c57600080fd5b612349896000604161228b565b96506123578960418061228b565b9550612366896082604161228b565b94508b87878d60405180856000191660001916815260200184805190602001908083835b6020831015156123af578051825260208201915060208101905060208303925061238a565b6001836020036101000a03801982511681845116808217855250505050505090500183805190602001908083835b60208310151561240257805182526020820191506020810190506020830392506123dd565b6001836020036101000a03801982511681845116808217855250505050505090500182600019166000191681526020019450505050506040518091039020935060008a141561248a576124558486612032565b73ffffffffffffffffffffffffffffffffffffffff163373ffffffffffffffffffffffffffffffffffffffff1614975061257f565b620f42408a10156124dd5761249f8486612032565b73ffffffffffffffffffffffffffffffffffffffff166124bf8d89612032565b73ffffffffffffffffffffffffffffffffffffffff1614975061257f565b6124ea8960c3604161228b565b92506124f68486612032565b73ffffffffffffffffffffffffffffffffffffffff166125168d89612032565b73ffffffffffffffffffffffffffffffffffffffff161491506125398484612032565b73ffffffffffffffffffffffffffffffffffffffff166125598d88612032565b73ffffffffffffffffffffffffffffffffffffffff1614905081801561257c5750805b97505b50505050505050949350505050565b60008060008414156125a357600091506125c2565b82840290508284828115156125b457fe5b041415156125be57fe5b8091505b5092915050565b6000818311156125db578290506125df565b8190505b92915050565b6000806000836020015114156125fe5760009150612611565b8260000151905060c0815160001a101591505b50919050565b600080600080600080612629876125e5565b15156126385760009550612687565b86600001519350835160001a945061264f87612811565b840192506001876020015185010391505b8183111515612683576126728361289d565b830192508080600101915050612660565b8095505b5050505050919050565b612699612a27565b60006126a4836125e5565b15156126af57600080fd5b6126b883612811565b83600001510190508282600001819052508082602001818152505050919050565b60006126e3612a0d565b826000015190508060200151816000015101836020015110915050919050565b61270b612a0d565b600080612717846126d9565b15612753578360200151915061272c8261289d565b90508183600001818152505080836020018181525050808201846020018181525050612758565b600080fd5b5050919050565b600080600083602001511415612778576000915061278a565b8260000151905060c0815160001a1091505b50919050565b60008060008060006127a18661275f565b15156127ac57600080fd5b85600001519150815160001a925060808310156127cf5781945060019350612809565b60b88310156127ed5760018660200151039350600182019450612808565b60b78303905080600187602001510303935060018183010194505b5b505050915091565b6000806000808460200151141561282b5760009250612896565b83600001519050805160001a9150608082101561284b5760009250612896565b60b8821080612867575060c08210158015612866575060f882105b5b156128755760019250612896565b60c082101561288c57600160b78303019250612896565b600160f783030192505b5050919050565b600080825160001a905060808110156128b95760019150612931565b60b88110156128d057600160808203019150612930565b60c08110156128fa5760b78103806020036101000a6001850151048082016001019350505061292f565b60f881101561291157600160c0820301915061292e565b60f78103806020036101000a600185015104808201600101935050505b5b5b5b50919050565b602060405190810160405280600081525090565b6060604051908101604052806003905b600081526020019060019003908161295b5790505090565b50600081556001016000815560010160009055565b60c060405190810160405280600073ffffffffffffffffffffffffffffffffffffffff16815260200160008152602001600081526020016129c7612a76565b81525090565b82600381019282156129fc579160200282015b828111156129fb5782518255916020019190600101906129e0565b5b509050612a099190612a9e565b5090565b604080519081016040528060008152602001600081525090565b606060405190810160405280612a3b612a48565b8152602001600081525090565b604080519081016040528060008152602001600081525090565b602060405190810160405280600081525090565b6060604051908101604052806003905b6000815260200190600190039081612a865790505090565b612ac091905b80821115612abc576000816000905550600101612aa4565b5090565b905600a165627a7a72305820c2230f938599fb41b93e8a187837126544ddfcd91519c6c1b4e42afd8280bfd200296060604052341561000f57600080fd5b336000806101000a81548173ffffffffffffffffffffffffffffffffffffffff021916908373ffffffffffffffffffffffffffffffffffffffff160217905550602060405190810160405280600060ff168152506001906001610073929190610081565b5060006002819055506100f8565b8280548282559060005260206000209081019282156100c2579160200282015b828111156100c1578251829060ff169055916020019190600101906100a1565b5b5090506100cf91906100d3565b5090565b6100f591905b808211156100f15760008160009055506001016100d9565b5090565b90565b61074b806101076000396000f30060606040526004361061006d576000357c0100000000000000000000000000000000000000000000000000000000900463ffffffff1680632dcdcd0c1461007257806390b5561d146100a9578063b07576ac146100cc578063bda1504b146100f5578063d6362e971461011e575b600080fd5b341561007d57600080fd5b6100936004808035906020019091905050610147565b6040518082815260200191505060405180910390f35b34156100b457600080fd5b6100ca6004808035906020019091905050610253565b005b34156100d757600080fd5b6100df610301565b6040518082815260200191505060405180910390f35b341561010057600080fd5b610108610404565b6040518082815260200191505060405180910390f35b341561012957600080fd5b61013161040a565b6040518082815260200191505060405180910390f35b6000600254610173600161016560028661042c90919063ffffffff16565b61046790919063ffffffff16565b11156101945761018d60028361042c90919063ffffffff16565b905061024e565b60016101bd60016101af60028661042c90919063ffffffff16565b61046790919063ffffffff16565b8154811015156101c957fe5b90600052602060002090015460016101eb60028561042c90919063ffffffff16565b8154811015156101f757fe5b90600052602060002090015410156102245761021d60028361042c90919063ffffffff16565b905061024e565b61024b600161023d60028561042c90919063ffffffff16565b61046790919063ffffffff16565b90505b919050565b6000809054906101000a900473ffffffffffffffffffffffffffffffffffffffff1673ffffffffffffffffffffffffffffffffffffffff163373ffffffffffffffffffffffffffffffffffffffff161415156102ae57600080fd5b600180548060010182816102c291906106ce565b9160005260206000209001600083909190915055506102ed600160025461046790919063ffffffff16565b6002819055506102fe600254610485565b50565b6000806000809054906101000a900473ffffffffffffffffffffffffffffffffffffffff1673ffffffffffffffffffffffffffffffffffffffff163373ffffffffffffffffffffffffffffffffffffffff1614151561035f57600080fd5b60018081548110151561036e57fe5b9060005260206000209001549050600160025481548110151561038d57fe5b9060005260206000209001546001808154811015156103a857fe5b90600052602060002090018190555060016002548154811015156103c857fe5b9060005260206000209001600090556103ed60016002546105ae90919063ffffffff16565b6002819055506103fd60016105c7565b8091505090565b60025481565b600060018081548110151561041b57fe5b906000526020600020900154905090565b60008060008414156104415760009150610460565b828402905082848281151561045257fe5b0414151561045c57fe5b8091505b5092915050565b600080828401905083811015151561047b57fe5b8091505092915050565b60005b600061049e6002846106b390919063ffffffff16565b11156105aa5760016104ba6002846106b390919063ffffffff16565b8154811015156104c657fe5b9060005260206000209001546001838154811015156104e157fe5b906000526020600020900154101561058f5760016105096002846106b390919063ffffffff16565b81548110151561051557fe5b906000526020600020900154905060018281548110151561053257fe5b90600052602060002090015460016105546002856106b390919063ffffffff16565b81548110151561056057fe5b9060005260206000209001819055508060018381548110151561057f57fe5b9060005260206000209001819055505b6105a36002836106b390919063ffffffff16565b9150610488565b5050565b60008282111515156105bc57fe5b818303905092915050565b6000805b6002546105e260028561042c90919063ffffffff16565b1115156106ae576105f283610147565b915060018281548110151561060357fe5b90600052602060002090015460018481548110151561061e57fe5b90600052602060002090015411156106a65760018381548110151561063f57fe5b906000526020600020900154905060018281548110151561065c57fe5b90600052602060002090015460018481548110151561067757fe5b9060005260206000209001819055508060018381548110151561069657fe5b9060005260206000209001819055505b8192506105cb565b505050565b60008082848115156106c157fe5b0490508091505092915050565b8154818355818115116106f5578183600052602060002091820191016106f491906106fa565b5b505050565b61071c91905b80821115610718576000816000905550600101610700565b5090565b905600a165627a7a723058208f45e3a5cccdcb4756029e5946d376bde977911e4c845cd9792553799027ac840029",
  "source": "pragma solidity ^0.4.18;\nimport '../Libraries/SafeMath.sol';\nimport '../Libraries/Math.sol';\nimport '../Libraries/RLP.sol';\nimport '../Libraries/Merkle.sol';\nimport '../Libraries/Merkle.sol';\nimport '../Libraries/Validate.sol';\nimport '../DataStructures/PriorityQueue.sol';\n\n\ncontract RootChain {\n    using SafeMath for uint256;\n    using RLP for bytes;\n    using RLP for RLP.RLPItem;\n    using RLP for RLP.Iterator;\n    using Merkle for bytes32;\n\n    //TODO: Refactor submit block to have block number included. Aggregate signatures for start exit. Create Withdraw method.\n    //TODO: Create reward system to incentivize fraud proofs\n    //TODO: Possibly useful to rely on OpenZeppelin instead of current Library contracts.\n    //TODO: Slash malicious block proposer. Not useful in PoA.\n\n    /*\n     * Events\n     */\n    event Deposit(address depositor, uint256 amount);\n\n    /*\n     *  Storage\n     */\n    mapping(uint256 => childBlock) public childChain;\n    mapping(uint256 => exit) public exits;\n    mapping(uint256 => uint256) public exitIds;\n    PriorityQueue exitsQueue;\n    address public authority;\n    uint256 public currentChildBlock;\n    uint256 public lastParentBlock;\n    uint256 public recentBlock;\n    uint256 public weekOldBlock;\n    uint256 minbond;\n\n    struct exit {\n        address owner;\n        uint256 amount;\n        uint256 bond;\n        uint256[3] utxoPos;\n    }\n\n    struct childBlock {\n        bytes32 root;\n        uint256 created_at;\n    }\n\n    /*\n     *  Modifiers\n     */\n    modifier isAuthority() {\n        require(msg.sender == authority);\n        _;\n    }\n\n    modifier incrementOldBlocks() {\n        while (childChain[weekOldBlock].created_at < block.timestamp.sub(1 weeks)) {\n            if (childChain[weekOldBlock].created_at == 0) \n                break;\n            weekOldBlock = weekOldBlock.add(1);\n        }\n        _;\n    }\n\n    function RootChain()\n        public\n    {\n        authority = msg.sender;\n        currentChildBlock = 1;\n        lastParentBlock = block.number;\n        exitsQueue = new PriorityQueue();\n    }\n\n    function submitBlock(bytes32 root)\n        public\n        isAuthority\n        incrementOldBlocks\n    {\n        require(block.number >= lastParentBlock.add(6));\n        childChain[currentChildBlock] = childBlock({\n            root: root,\n            created_at: block.timestamp\n        });\n        currentChildBlock = currentChildBlock.add(1);\n        lastParentBlock = block.number;\n    }\n\n    function deposit(bytes txBytes)\n        public\n        payable\n    {\n        var txList = txBytes.toRLPItem().toList();\n        require(txList.length == 11);\n        for (uint256 i; i < 6; i++) {\n            require(txList[i].toUint() == 0);\n        }\n        require(txList[7].toUint() == msg.value);\n        require(txList[9].toUint() == 0);\n        bytes32 zeroBytes;\n        bytes32 root = keccak256(keccak256(txBytes), new bytes(130));\n        for (i = 0; i < 16; i++) {\n            root = keccak256(root, zeroBytes);\n            zeroBytes = keccak256(zeroBytes, zeroBytes);\n        }\n        childChain[currentChildBlock] = childBlock({\n            root: root,\n            created_at: block.timestamp\n        });\n        currentChildBlock = currentChildBlock.add(1);\n        Deposit(txList[6].toAddress(), txList[7].toUint());\n    }\n\n    function getChildChain(uint256 blockNumber)\n        public\n        view\n        returns (bytes32, uint256)\n    {\n        return (childChain[blockNumber].root, childChain[blockNumber].created_at);\n    }\n\n    function getExit(uint256 priority)\n        public\n        view\n        returns (address, uint256, uint256[3])\n    {\n        return (exits[priority].owner, exits[priority].amount, exits[priority].utxoPos);\n    }\n\n    function startExit(uint256[3] txPos, bytes txBytes, bytes proof, bytes sigs)\n        public\n        payable\n        incrementOldBlocks\n    {\n        require(msg.value > minbond);\n        var txList = txBytes.toRLPItem().toList();\n        require(txList.length == 11);\n        require(msg.sender == txList[6 + 2 * txPos[2]].toAddress());\n        bytes32 txHash = keccak256(txBytes);\n        bytes32 merkleHash = keccak256(txHash, ByteUtils.slice(sigs, 0, 130));\n        uint256 inputCount = txList[3].toUint() * 1000000 + txList[0].toUint();\n        require(Validate.checkSigs(txHash, childChain[txPos[0]].root, inputCount, sigs));\n        require(merkleHash.checkMembership(txPos[1], childChain[txPos[0]].root, proof));\n        uint256 priority = 1000000000 + txPos[1] * 10000 + txPos[2];\n        uint256 exitId = txPos[0].mul(priority);\n        priority = priority.mul(Math.max(txPos[0], weekOldBlock));\n        require(exitIds[exitId] == 0);\n        require(exits[priority].amount == 0);\n        exitIds[exitId] = priority;\n        exitsQueue.insert(priority);\n        exits[priority] = exit({\n            owner: txList[6 + 2 * txPos[2]].toAddress(),\n            amount: txList[7 + 2 * txPos[2]].toUint(),\n            bond: msg.value,\n            utxoPos: txPos\n        });\n    }\n\n    function challengeExit(uint256 exitId, uint256[3] txPos, bytes txBytes, bytes proof, bytes sigs, bytes confirmationSig)\n        public\n        payable\n    {\n        require(msg.value > minbond);\n        var txList = txBytes.toRLPItem().toList();\n        require(txList.length == 11);\n        uint256 priority = exitIds[exitId];\n        uint256[3] memory exitsUtxoPos = exits[priority].utxoPos;\n        require(exitsUtxoPos[0] == txList[0 + 2 * exitsUtxoPos[2]].toUint());\n        require(exitsUtxoPos[1] == txList[1 + 2 * exitsUtxoPos[2]].toUint());\n        require(exitsUtxoPos[2] == txList[2 + 2 * exitsUtxoPos[2]].toUint());\n        var txHash = keccak256(txBytes);\n        var confirmationHash = keccak256(txHash, sigs, childChain[txPos[0]].root);\n        var merkleHash = keccak256(txHash, sigs);\n        address owner = exits[priority].owner;\n        require(owner == ECRecovery.recover(confirmationHash, confirmationSig));\n        require(merkleHash.checkMembership(txPos[1], childChain[txPos[0]].root, proof));\n        msg.sender.transfer(exits[priority].bond);\n        delete exits[priority];\n        delete exitIds[exitId];\n    }\n\n    function finalizeExits()\n        public\n        incrementOldBlocks\n        returns (uint256)\n    {\n        uint256 twoWeekOldTimestamp = block.timestamp.sub(2 weeks);\n        exit memory currentExit = exits[exitsQueue.getMin()];\n        while (childChain[currentExit.utxoPos[0]].created_at < twoWeekOldTimestamp && exitsQueue.currentSize() > 0) {\n            // return childChain[currentExit.utxoPos[0]].created_at;\n            uint256 exitId = currentExit.utxoPos[0] * 1000000000 + currentExit.utxoPos[1] * 10000 + currentExit.utxoPos[2];\n            currentExit.owner.transfer(currentExit.amount + currentExit.bond);\n            uint256 priority = exitsQueue.delMin();\n            delete exits[priority];\n            delete exitIds[exitId];\n            currentExit = exits[exitsQueue.getMin()];\n        }\n    }\n\n    function testingFunc() returns (bool){\n        return msg.sender == authority;\n    }\n}\n",
  "sourcePath": "/Users/adityasripal/plasma/plasma/root_chain/contracts/RootChain/RootChain.sol",
  "compiler": {
    "name": "solc",
    "version": "0.4.19+commit.c4cbbb05.Emscripten.clang"
  },
  "schemaVersion": "2.0.0",
  "updatedAt": "2018-03-07T07:21:09.767Z"
}