{
  "contractName": "RootChain",
  "abi": [
    {
      "constant": true,
      "inputs": [],
      "name": "lastParentBlock",
      "outputs": [
        {
          "name": "",
          "type": "uint256"
        }
      ],
      "payable": false,
      "stateMutability": "view",
      "type": "function"
    },
    {
      "constant": true,
      "inputs": [
        {
          "name": "",
          "type": "uint256"
        }
      ],
      "name": "exitIds",
      "outputs": [
        {
          "name": "",
          "type": "uint256"
        }
      ],
      "payable": false,
      "stateMutability": "view",
      "type": "function"
    },
    {
      "constant": true,
      "inputs": [
        {
          "name": "",
          "type": "uint256"
        }
      ],
      "name": "exits",
      "outputs": [
        {
          "name": "owner",
          "type": "address"
        },
        {
          "name": "amount",
          "type": "uint256"
        },
        {
          "name": "bond",
          "type": "uint256"
        }
      ],
      "payable": false,
      "stateMutability": "view",
      "type": "function"
    },
    {
      "constant": true,
      "inputs": [],
      "name": "weekOldBlock",
      "outputs": [
        {
          "name": "",
          "type": "uint256"
        }
      ],
      "payable": false,
      "stateMutability": "view",
      "type": "function"
    },
    {
      "constant": true,
      "inputs": [],
      "name": "recentBlock",
      "outputs": [
        {
          "name": "",
          "type": "uint256"
        }
      ],
      "payable": false,
      "stateMutability": "view",
      "type": "function"
    },
    {
      "constant": true,
      "inputs": [],
      "name": "currentChildBlock",
      "outputs": [
        {
          "name": "",
          "type": "uint256"
        }
      ],
      "payable": false,
      "stateMutability": "view",
      "type": "function"
    },
    {
      "constant": true,
      "inputs": [],
      "name": "authority",
      "outputs": [
        {
          "name": "",
          "type": "address"
        }
      ],
      "payable": false,
      "stateMutability": "view",
      "type": "function"
    },
    {
      "constant": true,
      "inputs": [
        {
          "name": "",
          "type": "uint256"
        }
      ],
      "name": "childChain",
      "outputs": [
        {
          "name": "root",
          "type": "bytes32"
        },
        {
          "name": "created_at",
          "type": "uint256"
        }
      ],
      "payable": false,
      "stateMutability": "view",
      "type": "function"
    },
    {
      "inputs": [],
      "payable": false,
      "stateMutability": "nonpayable",
      "type": "constructor"
    },
    {
      "anonymous": false,
      "inputs": [
        {
          "indexed": false,
          "name": "depositor",
          "type": "address"
        },
        {
          "indexed": false,
          "name": "amount",
          "type": "uint256"
        }
      ],
      "name": "Deposit",
      "type": "event"
    },
    {
      "constant": false,
      "inputs": [
        {
          "name": "root",
          "type": "bytes32"
        }
      ],
      "name": "submitBlock",
      "outputs": [],
      "payable": false,
      "stateMutability": "nonpayable",
      "type": "function"
    },
    {
      "constant": false,
      "inputs": [
        {
          "name": "txBytes",
          "type": "bytes"
        }
      ],
      "name": "deposit",
      "outputs": [],
      "payable": true,
      "stateMutability": "payable",
      "type": "function"
    },
    {
      "constant": true,
      "inputs": [
        {
          "name": "blockNumber",
          "type": "uint256"
        }
      ],
      "name": "getChildChain",
      "outputs": [
        {
          "name": "",
          "type": "bytes32"
        },
        {
          "name": "",
          "type": "uint256"
        }
      ],
      "payable": false,
      "stateMutability": "view",
      "type": "function"
    },
    {
      "constant": true,
      "inputs": [
        {
          "name": "priority",
          "type": "uint256"
        }
      ],
      "name": "getExit",
      "outputs": [
        {
          "name": "",
          "type": "address"
        },
        {
          "name": "",
          "type": "uint256"
        },
        {
          "name": "",
          "type": "uint256[3]"
        }
      ],
      "payable": false,
      "stateMutability": "view",
      "type": "function"
    },
    {
      "constant": false,
      "inputs": [
        {
          "name": "txPos",
          "type": "uint256[3]"
        },
        {
          "name": "txBytes",
          "type": "bytes"
        },
        {
          "name": "proof",
          "type": "bytes"
        },
        {
          "name": "sigs",
          "type": "bytes"
        }
      ],
      "name": "startExit",
      "outputs": [],
      "payable": true,
      "stateMutability": "payable",
      "type": "function"
    },
    {
      "constant": false,
      "inputs": [
        {
          "name": "exitId",
          "type": "uint256"
        },
        {
          "name": "txPos",
          "type": "uint256[3]"
        },
        {
          "name": "txBytes",
          "type": "bytes"
        },
        {
          "name": "proof",
          "type": "bytes"
        },
        {
          "name": "sigs",
          "type": "bytes"
        },
        {
          "name": "confirmationSig",
          "type": "bytes"
        }
      ],
      "name": "challengeExit",
      "outputs": [],
      "payable": true,
      "stateMutability": "payable",
      "type": "function"
    },
    {
      "constant": false,
      "inputs": [],
      "name": "finalizeExits",
      "outputs": [
        {
          "name": "",
          "type": "uint256"
        }
      ],
      "payable": false,
      "stateMutability": "nonpayable",
      "type": "function"
    },
    {
      "constant": false,
      "inputs": [],
      "name": "donate",
      "outputs": [],
      "payable": true,
      "stateMutability": "payable",
      "type": "function"
    }
  ],
  "bytecode": "0x606060405234156200001057600080fd5b60008033600460006101000a81548173ffffffffffffffffffffffffffffffffffffffff021916908373ffffffffffffffffffffffffffffffffffffffff1602179055506001600581905550436006819055506200006d62000139565b604051809103906000f08015156200008457600080fd5b600360006101000a81548173ffffffffffffffffffffffffffffffffffffffff021916908373ffffffffffffffffffffffffffffffffffffffff1602179055506005600981905550600090505b6010811015620001315781600a82601081101515620000ec57fe5b018160001916905550818260405180836000191660001916815260200182600019166000191681526020019250505060405180910390209150600181019050620000d1565b50506200014a565b6040516108528062002be483390190565b612a8a806200015a6000396000f3006060604052600436106100e6576000357c0100000000000000000000000000000000000000000000000000000000900463ffffffff168063117546c5146100eb57806316b3884014610114578063342de1791461014b5780634237b5f3146101bc57806368d6570e146101e55780636f84b695146103355780637a95f1e81461035e57806385444de31461038757806398b1e06a146103cd578063baa476941461041f578063bf7e214f14610446578063c6ab44cd1461049b578063e60f1ff1146104c4578063eaf61eb51461055d578063ed88c68e14610661578063f95643b11461066b575b600080fd5b34156100f657600080fd5b6100fe6106b1565b6040518082815260200191505060405180910390f35b341561011f57600080fd5b61013560048080359060200190919050506106b7565b6040518082815260200191505060405180910390f35b341561015657600080fd5b61016c60048080359060200190919050506106cf565b604051808473ffffffffffffffffffffffffffffffffffffffff1673ffffffffffffffffffffffffffffffffffffffff168152602001838152602001828152602001935050505060405180910390f35b34156101c757600080fd5b6101cf610719565b6040518082815260200191505060405180910390f35b6103336004808035906020019091908060600190600380602002604051908101604052809291908260036020028082843782019150505050509190803590602001908201803590602001908080601f0160208091040260200160405190810160405280939291908181526020018383808284378201915050505050509190803590602001908201803590602001908080601f0160208091040260200160405190810160405280939291908181526020018383808284378201915050505050509190803590602001908201803590602001908080601f0160208091040260200160405190810160405280939291908181526020018383808284378201915050505050509190803590602001908201803590602001908080601f0160208091040260200160405190810160405280939291908181526020018383808284378201915050505050509190505061071f565b005b341561034057600080fd5b610348610c0c565b6040518082815260200191505060405180910390f35b341561036957600080fd5b610371610c12565b6040518082815260200191505060405180910390f35b341561039257600080fd5b6103a86004808035906020019091905050610c18565b6040518083600019166000191681526020018281526020019250505060405180910390f35b61041d600480803590602001908201803590602001908080601f01602080910402602001604051908101604052809392919081815260200183838082843782019150505050505091905050610c50565b005b341561042a57600080fd5b610444600480803560001916906020019091905050610f8c565b005b341561045157600080fd5b6104596110f6565b604051808273ffffffffffffffffffffffffffffffffffffffff1673ffffffffffffffffffffffffffffffffffffffff16815260200191505060405180910390f35b34156104a657600080fd5b6104ae61111c565b6040518082815260200191505060405180910390f35b34156104cf57600080fd5b6104e56004808035906020019091905050611765565b604051808473ffffffffffffffffffffffffffffffffffffffff1673ffffffffffffffffffffffffffffffffffffffff16815260200183815260200182600360200280838360005b8381101561054857808201518184015260208101905061052d565b50505050905001935050505060405180910390f35b61065f6004808060600190600380602002604051908101604052809291908260036020028082843782019150505050509190803590602001908201803590602001908080601f0160208091040260200160405190810160405280939291908181526020018383808284378201915050505050509190803590602001908201803590602001908080601f0160208091040260200160405190810160405280939291908181526020018383808284378201915050505050509190803590602001908201803590602001908080601f01602080910402602001604051908101604052809392919081815260200183838082843782019150505050505091905050611820565b005b610669611e37565b005b341561067657600080fd5b61068c6004808035906020019091905050611e39565b6040518083600019166000191681526020018281526020019250505060405180910390f35b60065481565b60026020528060005260406000206000915090505481565b60016020528060005260406000206000915090508060000160009054906101000a900473ffffffffffffffffffffffffffffffffffffffff16908060010154908060020154905083565b60085481565b6107276128d2565b60006107316128e6565b6000806000806107486107438c611e5d565b611eb8565b9650600b875114151561075a57600080fd5b600260008e8152602001908152602001600020549550600160008781526020019081526020016000206003016003806020026040519081016040528092919082600380156107bd576020028201915b8154815260200190600101908083116107a9575b505050505094506107fd878660026003811015156107d757fe5b60200201516002026000018151811015156107ee57fe5b90602001906020020151611f85565b85600060038110151561080c57fe5b602002015114151561081d57600080fd5b6108568786600260038110151561083057fe5b602002015160020260010181518110151561084757fe5b90602001906020020151611f85565b85600160038110151561086557fe5b602002015114151561087657600080fd5b6108af8786600260038110151561088957fe5b60200201516002026002018151811015156108a057fe5b90602001906020020151611f85565b8560026003811015156108be57fe5b60200201511415156108cf57600080fd5b8a6040518082805190602001908083835b60208310151561090557805182526020820191506020810190506020830392506108e0565b6001836020036101000a0380198251168184511680821785525050505050509050019150506040518091039020935083896000808f600060038110151561094857fe5b602002015181526020019081526020016000206000015460405180846000191660001916815260200183805190602001908083835b6020831015156109a2578051825260208201915060208101905060208303925061097d565b6001836020036101000a0380198251168184511680821785525050505050509050018260001916600019168152602001935050505060405180910390209250838960405180836000191660001916815260200182805190602001908083835b602083101515610a265780518252602082019150602081019050602083039250610a01565b6001836020036101000a03801982511681845116808217855250505050505090500192505050604051809103902091506001600087815260200190815260200160002060000160009054906101000a900473ffffffffffffffffffffffffffffffffffffffff169050610a998389611fcd565b73ffffffffffffffffffffffffffffffffffffffff168173ffffffffffffffffffffffffffffffffffffffff16141515610ad257600080fd5b610b288c6001600381101515610ae457fe5b60200201516000808f6000600381101515610afb57fe5b60200201518152602001908152602001600020600001548c85600019166120cb909392919063ffffffff16565b1515610b3357600080fd5b3373ffffffffffffffffffffffffffffffffffffffff166108fc60016000898152602001908152602001600020600201549081150290604051600060405180830381858888f193505050501515610b8957600080fd5b60016000878152602001908152602001600020600080820160006101000a81549073ffffffffffffffffffffffffffffffffffffffff021916905560018201600090556002820160009055600382016000610be4919061290e565b5050600260008e81526020019081526020016000206000905550505050505050505050505050565b60075481565b60055481565b600080600080848152602001908152602001600020600001546000808581526020019081526020016000206001015491509150915091565b610c586128d2565b600080610c6c610c6785611e5d565b611eb8565b9250600b8351141515610c7e57600080fd5b5b6006821015610cc3576000610caa8484815181101515610c9b57fe5b90602001906020020151611f85565b141515610cb657600080fd5b8180600101925050610c7f565b34610ce5846007815181101515610cd657fe5b90602001906020020151611f85565b141515610cf157600080fd5b6000610d14846009815181101515610d0557fe5b90602001906020020151611f85565b141515610d2057600080fd5b836040518082805190602001908083835b602083101515610d565780518252602082019150602081019050602083039250610d31565b6001836020036101000a03801982511681845116808217855250505050505090500191505060405180910390206082604051805910610d925750595b9080825280601f01601f191660200182016040525060405180836000191660001916815260200182805190602001908083835b602083101515610dea5780518252602082019150602081019050602083039250610dc5565b6001836020036101000a0380198251168184511680821785525050505050509050019250505060405180910390209050600091505b6010821015610e755780600a83601081101515610e3857fe5b0154604051808360001916600019168152602001826000191660001916815260200192505050604051809103902090508180600101925050610e1f565b6040805190810160405280826000191681526020014281525060008060055481526020019081526020016000206000820151816000019060001916905560208201518160010155905050610ed560016005546121a890919063ffffffff16565b6005819055507fe1fffcc4923d04b559f4d29a8bfc6cda04eb5b0d3c460751c2402c5c5cc9109c610f1d846006815181101515610f0e57fe5b906020019060200201516121c6565b610f3e856007815181101515610f2f57fe5b90602001906020020151611f85565b604051808373ffffffffffffffffffffffffffffffffffffffff1673ffffffffffffffffffffffffffffffffffffffff1681526020018281526020019250505060405180910390a150505050565b600460009054906101000a900473ffffffffffffffffffffffffffffffffffffffff1673ffffffffffffffffffffffffffffffffffffffff163373ffffffffffffffffffffffffffffffffffffffff16141515610fe857600080fd5b5b610fff62093a804261220d90919063ffffffff16565b6000806008548152602001908152602001600020600101541015611063576000806000600854815260200190815260200160002060010154141561104257611063565b61105860016008546121a890919063ffffffff16565b600881905550610fe9565b611078600680546121a890919063ffffffff16565b431015151561108657600080fd5b60408051908101604052808260001916815260200142815250600080600554815260200190815260200160002060008201518160000190600019169055602082015181600101559050506110e660016005546121a890919063ffffffff16565b6005819055504360068190555050565b600460009054906101000a900473ffffffffffffffffffffffffffffffffffffffff1681565b600080611127612923565b6000805b61114162093a804261220d90919063ffffffff16565b60008060085481526020019081526020016000206001015410156111a55760008060006008548152602001908152602001600020600101541415611184576111a5565b61119a60016008546121a890919063ffffffff16565b60088190555061112b565b6111bb621275004261220d90919063ffffffff16565b935060016000600360009054906101000a900473ffffffffffffffffffffffffffffffffffffffff1673ffffffffffffffffffffffffffffffffffffffff1663d6362e976000604051602001526040518163ffffffff167c0100000000000000000000000000000000000000000000000000000000028152600401602060405180830381600087803b151561124f57600080fd5b6102c65a03f1151561126057600080fd5b505050604051805190508152602001908152602001600020608060405190810160405290816000820160009054906101000a900473ffffffffffffffffffffffffffffffffffffffff1673ffffffffffffffffffffffffffffffffffffffff1673ffffffffffffffffffffffffffffffffffffffff16815260200160018201548152602001600282015481526020016003820160038060200260405190810160405280929190826003801561132a576020028201915b815481526020019060010190808311611316575b50505050508152505092505b836000808560600151600060038110151561134d57fe5b602002015181526020019081526020016000206001015410801561141957506000600360009054906101000a900473ffffffffffffffffffffffffffffffffffffffff1673ffffffffffffffffffffffffffffffffffffffff1663bda1504b6000604051602001526040518163ffffffff167c0100000000000000000000000000000000000000000000000000000000028152600401602060405180830381600087803b15156113fc57600080fd5b6102c65a03f1151561140d57600080fd5b50505060405180519050115b1561175e578260600151600260038110151561143157fe5b60200201516127108460600151600160038110151561144c57fe5b602002015102633b9aca008560600151600060038110151561146a57fe5b60200201510201019150826000015173ffffffffffffffffffffffffffffffffffffffff166108fc84604001518560200151019081150290604051600060405180830381858888f1935050505015156114c257600080fd5b600360009054906101000a900473ffffffffffffffffffffffffffffffffffffffff1673ffffffffffffffffffffffffffffffffffffffff1663b07576ac6000604051602001526040518163ffffffff167c0100000000000000000000000000000000000000000000000000000000028152600401602060405180830381600087803b151561155057600080fd5b6102c65a03f1151561156157600080fd5b50505060405180519050905060016000828152602001908152602001600020600080820160006101000a81549073ffffffffffffffffffffffffffffffffffffffff0219169055600182016000905560028201600090556003820160006115c8919061290e565b5050600260008381526020019081526020016000206000905560016000600360009054906101000a900473ffffffffffffffffffffffffffffffffffffffff1673ffffffffffffffffffffffffffffffffffffffff1663d6362e976000604051602001526040518163ffffffff167c0100000000000000000000000000000000000000000000000000000000028152600401602060405180830381600087803b151561167357600080fd5b6102c65a03f1151561168457600080fd5b505050604051805190508152602001908152602001600020608060405190810160405290816000820160009054906101000a900473ffffffffffffffffffffffffffffffffffffffff1673ffffffffffffffffffffffffffffffffffffffff1673ffffffffffffffffffffffffffffffffffffffff16815260200160018201548152602001600282015481526020016003820160038060200260405190810160405280929190826003801561174e576020028201915b81548152602001906001019080831161173a575b5050505050815250509250611336565b5050505090565b6000806117706128e6565b6001600085815260200190815260200160002060000160009054906101000a900473ffffffffffffffffffffffffffffffffffffffff166001600086815260200190815260200160002060010154600160008781526020019081526020016000206003018060038060200260405190810160405280929190826003801561180c576020028201915b8154815260200190600101908083116117f8575b505050505090509250925092509193909250565b6118286128d2565b60008060008060005b61184762093a804261220d90919063ffffffff16565b60008060085481526020019081526020016000206001015410156118ab576000806000600854815260200190815260200160002060010154141561188a576118ab565b6118a060016008546121a890919063ffffffff16565b600881905550611831565b6118bc6118b78a611e5d565b611eb8565b9550600b86511415156118ce57600080fd5b611907868b60026003811015156118e157fe5b60200201516002026006018151811015156118f857fe5b906020019060200201516121c6565b73ffffffffffffffffffffffffffffffffffffffff163373ffffffffffffffffffffffffffffffffffffffff1614151561194057600080fd5b606460095461197e888d600260038110151561195857fe5b602002015160020260070181518110151561196f57fe5b90602001906020020151611f85565b0281151561198857fe5b04341015151561199757600080fd5b886040518082805190602001908083835b6020831015156119cd57805182526020820191506020810190506020830392506119a8565b6001836020036101000a0380198251168184511680821785525050505050509050019150506040518091039020945084611a0a8860006082612226565b60405180836000191660001916815260200182805190602001908083835b602083101515611a4d5780518252602082019150602081019050602083039250611a28565b6001836020036101000a0380198251168184511680821785525050505050509050019250505060405180910390209350611a9e866000815181101515611a8f57fe5b90602001906020020151611f85565b620f4240611ac3886003815181101515611ab457fe5b90602001906020020151611f85565b02019250611afb856000808d6000600381101515611add57fe5b6020020151815260200190815260200160002060000154858a612285565b1515611b0657600080fd5b611b5c8a6001600381101515611b1857fe5b60200201516000808d6000600381101515611b2f57fe5b60200201518152602001908152602001600020600001548a87600019166120cb909392919063ffffffff16565b1515611b6757600080fd5b896002600381101515611b7657fe5b60200201516127108b6001600381101515611b8d57fe5b602002015102633b9aca0001019150611bc2828b6000600381101515611baf57fe5b602002015161252990919063ffffffff16565b9050611bf5611be68b6000600381101515611bd957fe5b6020020151600854612564565b8361252990919063ffffffff16565b915060006002600083815260200190815260200160002054141515611c1957600080fd5b60006001600084815260200190815260200160002060010154141515611c3e57600080fd5b816002600083815260200190815260200160002081905550600360009054906101000a900473ffffffffffffffffffffffffffffffffffffffff1673ffffffffffffffffffffffffffffffffffffffff166390b5561d836040518263ffffffff167c010000000000000000000000000000000000000000000000000000000002815260040180828152602001915050600060405180830381600087803b1515611ce657600080fd5b6102c65a03f11515611cf757600080fd5b505050608060405190810160405280611d3f888d6002600381101515611d1957fe5b6020020151600202600601815181101515611d3057fe5b906020019060200201516121c6565b73ffffffffffffffffffffffffffffffffffffffff168152602001611d93888d6002600381101515611d6d57fe5b6020020151600202600701815181101515611d8457fe5b90602001906020020151611f85565b81526020013481526020018b8152506001600084815260200190815260200160002060008201518160000160006101000a81548173ffffffffffffffffffffffffffffffffffffffff021916908373ffffffffffffffffffffffffffffffffffffffff1602179055506020820151816001015560408201518160020155606082015181600301906003611e27929190612968565b5090505050505050505050505050565b565b60006020528060005260406000206000915090508060000154908060010154905082565b611e656129a8565b600080835191506000821415611e935760408051908101604052806000815260200160008152509250611eb1565b60208401905060408051908101604052808281526020018381525092505b5050919050565b611ec06128d2565b6000611eca6129c2565b6000611ed585612580565b1515611ee057600080fd5b611ee9856125b2565b925082604051805910611ef95750595b908082528060200260200182016040528015611f2f57816020015b611f1c6129e3565b815260200190600190039081611f145790505b509350611f3b8561262c565b91505b611f4782612674565b15611f7d57611f558261269e565b8482815181101515611f6357fe5b906020019060200201819052508080600101915050611f3e565b505050919050565b6000806000611f93846126fa565b1515611f9e57600080fd5b611fa78461272b565b915091506020811115611fb957600080fd5b806020036101000a82510492505050919050565b60008060008060418551141515611fe757600093506120c2565b6020850151925060408501519150606085015160001a9050601b8160ff16101561201257601b810190505b601b8160ff161415801561202a5750601c8160ff1614155b1561203857600093506120c2565b600186828585604051600081526020016040526000604051602001526040518085600019166000191681526020018460ff1660ff16815260200183600019166000191681526020018260001916600019168152602001945050505050602060405160208103908084039060008661646e5a03f115156120b657600080fd5b50506020604051035193505b50505092915050565b60008060008061020085511415156120e257600080fd5b879150602090505b6102008111151561219057808501519250600060028881151561210957fe5b06141561214557818360405180836000191660001916815260200182600019166000191681526020019250505060405180910390209150612176565b8282604051808360001916600019168152602001826000191660001916815260200192505050604051809103902091505b60028781151561218257fe5b0496506020810190506120ea565b85600019168260001916149350505050949350505050565b60008082840190508381101515156121bc57fe5b8091505092915050565b60008060006121d4846126fa565b15156121df57600080fd5b6121e88461272b565b915091506014811415156121fb57600080fd5b600c6101000a82510492505050919050565b600082821115151561221b57fe5b818303905092915050565b61222e6129fd565b6122366129fd565b6040519050601f831680820184810186838901015b81831015612268578051835260208301925060208101905061224b565b50858452601f19601f830116604052505050809150509392505050565b600061228f6129fd565b6122976129fd565b61229f6129fd565b60006122a96129fd565b600080600060418a518115156122bb57fe5b061480156122cc5750610104895111155b15156122d757600080fd5b6122e48960006041612226565b96506122f289604180612226565b95506123018960826041612226565b94508b87878d60405180856000191660001916815260200184805190602001908083835b60208310151561234a5780518252602082019150602081019050602083039250612325565b6001836020036101000a03801982511681845116808217855250505050505090500183805190602001908083835b60208310151561239d5780518252602082019150602081019050602083039250612378565b6001836020036101000a03801982511681845116808217855250505050505090500182600019166000191681526020019450505050506040518091039020935060008a1415612425576123f08486611fcd565b73ffffffffffffffffffffffffffffffffffffffff163373ffffffffffffffffffffffffffffffffffffffff1614975061251a565b620f42408a10156124785761243a8486611fcd565b73ffffffffffffffffffffffffffffffffffffffff1661245a8d89611fcd565b73ffffffffffffffffffffffffffffffffffffffff1614975061251a565b6124858960c36041612226565b92506124918486611fcd565b73ffffffffffffffffffffffffffffffffffffffff166124b18d89611fcd565b73ffffffffffffffffffffffffffffffffffffffff161491506124d48484611fcd565b73ffffffffffffffffffffffffffffffffffffffff166124f48d88611fcd565b73ffffffffffffffffffffffffffffffffffffffff161490508180156125175750805b97505b50505050505050949350505050565b600080600084141561253e576000915061255d565b828402905082848281151561254f57fe5b0414151561255957fe5b8091505b5092915050565b6000818311156125765782905061257a565b8190505b92915050565b60008060008360200151141561259957600091506125ac565b8260000151905060c0815160001a101591505b50919050565b6000806000806000806125c487612580565b15156125d35760009550612622565b86600001519350835160001a94506125ea876127ac565b840192506001876020015185010391505b818311151561261e5761260d83612838565b8301925080806001019150506125fb565b8095505b5050505050919050565b6126346129c2565b600061263f83612580565b151561264a57600080fd5b612653836127ac565b83600001510190508282600001819052508082602001818152505050919050565b600061267e6129a8565b826000015190508060200151816000015101836020015110915050919050565b6126a66129a8565b6000806126b284612674565b156126ee57836020015191506126c782612838565b905081836000018181525050808360200181815250508082018460200181815250506126f3565b600080fd5b5050919050565b6000806000836020015114156127135760009150612725565b8260000151905060c0815160001a1091505b50919050565b600080600080600061273c866126fa565b151561274757600080fd5b85600001519150815160001a9250608083101561276a57819450600193506127a4565b60b883101561278857600186602001510393506001820194506127a3565b60b78303905080600187602001510303935060018183010194505b5b505050915091565b600080600080846020015114156127c65760009250612831565b83600001519050805160001a915060808210156127e65760009250612831565b60b8821080612802575060c08210158015612801575060f882105b5b156128105760019250612831565b60c082101561282757600160b78303019250612831565b600160f783030192505b5050919050565b600080825160001a9050608081101561285457600191506128cc565b60b881101561286b576001608082030191506128cb565b60c08110156128955760b78103806020036101000a600185015104808201600101935050506128ca565b60f88110156128ac57600160c082030191506128c9565b60f78103806020036101000a600185015104808201600101935050505b5b5b5b50919050565b602060405190810160405280600081525090565b6060604051908101604052806003905b60008152602001906001900390816128f65790505090565b50600081556001016000815560010160009055565b60c060405190810160405280600073ffffffffffffffffffffffffffffffffffffffff1681526020016000815260200160008152602001612962612a11565b81525090565b8260038101928215612997579160200282015b8281111561299657825182559160200191906001019061297b565b5b5090506129a49190612a39565b5090565b604080519081016040528060008152602001600081525090565b6060604051908101604052806129d66129e3565b8152602001600081525090565b604080519081016040528060008152602001600081525090565b602060405190810160405280600081525090565b6060604051908101604052806003905b6000815260200190600190039081612a215790505090565b612a5b91905b80821115612a57576000816000905550600101612a3f565b5090565b905600a165627a7a723058209c9df0e1ae757912c9f4bc3b1494d301ffffa4b0b15585fc7774c1f2315f16cf00296060604052341561000f57600080fd5b336000806101000a81548173ffffffffffffffffffffffffffffffffffffffff021916908373ffffffffffffffffffffffffffffffffffffffff160217905550602060405190810160405280600060ff168152506001906001610073929190610081565b5060006002819055506100f8565b8280548282559060005260206000209081019282156100c2579160200282015b828111156100c1578251829060ff169055916020019190600101906100a1565b5b5090506100cf91906100d3565b5090565b6100f591905b808211156100f15760008160009055506001016100d9565b5090565b90565b61074b806101076000396000f30060606040526004361061006d576000357c0100000000000000000000000000000000000000000000000000000000900463ffffffff1680632dcdcd0c1461007257806390b5561d146100a9578063b07576ac146100cc578063bda1504b146100f5578063d6362e971461011e575b600080fd5b341561007d57600080fd5b6100936004808035906020019091905050610147565b6040518082815260200191505060405180910390f35b34156100b457600080fd5b6100ca6004808035906020019091905050610253565b005b34156100d757600080fd5b6100df610301565b6040518082815260200191505060405180910390f35b341561010057600080fd5b610108610404565b6040518082815260200191505060405180910390f35b341561012957600080fd5b61013161040a565b6040518082815260200191505060405180910390f35b6000600254610173600161016560028661042c90919063ffffffff16565b61046790919063ffffffff16565b11156101945761018d60028361042c90919063ffffffff16565b905061024e565b60016101bd60016101af60028661042c90919063ffffffff16565b61046790919063ffffffff16565b8154811015156101c957fe5b90600052602060002090015460016101eb60028561042c90919063ffffffff16565b8154811015156101f757fe5b90600052602060002090015410156102245761021d60028361042c90919063ffffffff16565b905061024e565b61024b600161023d60028561042c90919063ffffffff16565b61046790919063ffffffff16565b90505b919050565b6000809054906101000a900473ffffffffffffffffffffffffffffffffffffffff1673ffffffffffffffffffffffffffffffffffffffff163373ffffffffffffffffffffffffffffffffffffffff161415156102ae57600080fd5b600180548060010182816102c291906106ce565b9160005260206000209001600083909190915055506102ed600160025461046790919063ffffffff16565b6002819055506102fe600254610485565b50565b6000806000809054906101000a900473ffffffffffffffffffffffffffffffffffffffff1673ffffffffffffffffffffffffffffffffffffffff163373ffffffffffffffffffffffffffffffffffffffff1614151561035f57600080fd5b60018081548110151561036e57fe5b9060005260206000209001549050600160025481548110151561038d57fe5b9060005260206000209001546001808154811015156103a857fe5b90600052602060002090018190555060016002548154811015156103c857fe5b9060005260206000209001600090556103ed60016002546105ae90919063ffffffff16565b6002819055506103fd60016105c7565b8091505090565b60025481565b600060018081548110151561041b57fe5b906000526020600020900154905090565b60008060008414156104415760009150610460565b828402905082848281151561045257fe5b0414151561045c57fe5b8091505b5092915050565b600080828401905083811015151561047b57fe5b8091505092915050565b60005b600061049e6002846106b390919063ffffffff16565b11156105aa5760016104ba6002846106b390919063ffffffff16565b8154811015156104c657fe5b9060005260206000209001546001838154811015156104e157fe5b906000526020600020900154101561058f5760016105096002846106b390919063ffffffff16565b81548110151561051557fe5b906000526020600020900154905060018281548110151561053257fe5b90600052602060002090015460016105546002856106b390919063ffffffff16565b81548110151561056057fe5b9060005260206000209001819055508060018381548110151561057f57fe5b9060005260206000209001819055505b6105a36002836106b390919063ffffffff16565b9150610488565b5050565b60008282111515156105bc57fe5b818303905092915050565b6000805b6002546105e260028561042c90919063ffffffff16565b1115156106ae576105f283610147565b915060018281548110151561060357fe5b90600052602060002090015460018481548110151561061e57fe5b90600052602060002090015411156106a65760018381548110151561063f57fe5b906000526020600020900154905060018281548110151561065c57fe5b90600052602060002090015460018481548110151561067757fe5b9060005260206000209001819055508060018381548110151561069657fe5b9060005260206000209001819055505b8192506105cb565b505050565b60008082848115156106c157fe5b0490508091505092915050565b8154818355818115116106f5578183600052602060002091820191016106f491906106fa565b5b505050565b61071c91905b80821115610718576000816000905550600101610700565b5090565b905600a165627a7a723058208f45e3a5cccdcb4756029e5946d376bde977911e4c845cd9792553799027ac840029",
  "source": "pragma solidity ^0.4.18;\nimport '../Libraries/SafeMath.sol';\nimport '../Libraries/Math.sol';\nimport '../Libraries/RLP.sol';\nimport '../Libraries/Merkle.sol';\nimport '../Libraries/Merkle.sol';\nimport '../Libraries/Validate.sol';\nimport '../DataStructures/PriorityQueue.sol';\n\n\ncontract RootChain {\n    using SafeMath for uint256;\n    using RLP for bytes;\n    using RLP for RLP.RLPItem;\n    using RLP for RLP.Iterator;\n    using Merkle for bytes32;\n\n    //TODO: Refactor submit block to have block number included. Aggregate signatures for start exit. Create Withdraw method.\n    //TODO: Create reward system to incentivize fraud proofs\n    //TODO: Possibly useful to rely on OpenZeppelin instead of current Library contracts.\n    //TODO: Slash malicious block proposer. Not useful in PoA.\n\n    /*\n     * Events\n     */\n    event Deposit(address depositor, uint256 amount);\n\n    /*\n     *  Storage\n     */\n    mapping(uint256 => childBlock) public childChain;\n    mapping(uint256 => exit) public exits;\n    mapping(uint256 => uint256) public exitIds;\n    PriorityQueue exitsQueue;\n    address public authority;\n    uint256 public currentChildBlock;\n    uint256 public lastParentBlock;\n    uint256 public recentBlock;\n    uint256 public weekOldBlock;\n    uint256 minExitBond; //this is a percentage out of 100 that user must stake to exit.\n\n    bytes32[16] zeroHashes;\n\n    struct exit {\n        address owner;\n        uint256 amount;\n        uint256 bond;\n        uint256[3] utxoPos;\n    }\n\n    struct childBlock {\n        bytes32 root;\n        uint256 created_at;\n    }\n\n    /*\n     *  Modifiers\n     */\n    modifier isAuthority() {\n        require(msg.sender == authority);\n        _;\n    }\n\n    modifier incrementOldBlocks() {\n        while (childChain[weekOldBlock].created_at < block.timestamp.sub(1 weeks)) {\n            if (childChain[weekOldBlock].created_at == 0) \n                break;\n            weekOldBlock = weekOldBlock.add(1);\n        }\n        _;\n    }\n\n    function RootChain()\n        public\n    {\n        authority = msg.sender;\n        currentChildBlock = 1;\n        lastParentBlock = block.number;\n        exitsQueue = new PriorityQueue();\n        minExitBond = 5; // 5% of UTXO\n        bytes32 intermediate;\n        for (uint256 i = 0; i < 16; i += 1) {\n            zeroHashes[i] = intermediate;\n            intermediate = keccak256(intermediate, intermediate);\n        }\n    }\n\n    function submitBlock(bytes32 root)\n        public\n        isAuthority\n        incrementOldBlocks\n    {\n        require(block.number >= lastParentBlock.add(6));\n        childChain[currentChildBlock] = childBlock({\n            root: root,\n            created_at: block.timestamp\n        });\n        currentChildBlock = currentChildBlock.add(1);\n        lastParentBlock = block.number;\n    }\n\n    function deposit(bytes txBytes)\n        public\n        payable\n    {\n        var txList = txBytes.toRLPItem().toList();\n        require(txList.length == 11);\n        for (uint256 i; i < 6; i++) {\n            require(txList[i].toUint() == 0);\n        }\n        require(txList[7].toUint() == msg.value);\n        require(txList[9].toUint() == 0);\n        bytes32 root = keccak256(keccak256(txBytes), new bytes(130));\n        for (i = 0; i < 16; i++) {\n            root = keccak256(root, zeroHashes[i]);\n        }\n        childChain[currentChildBlock] = childBlock({\n            root: root,\n            created_at: block.timestamp\n        });\n        currentChildBlock = currentChildBlock.add(1);\n        Deposit(txList[6].toAddress(), txList[7].toUint());\n    }\n\n    function getChildChain(uint256 blockNumber)\n        public\n        view\n        returns (bytes32, uint256)\n    {\n        return (childChain[blockNumber].root, childChain[blockNumber].created_at);\n    }\n\n    function getExit(uint256 priority)\n        public\n        view\n        returns (address, uint256, uint256[3])\n    {\n        return (exits[priority].owner, exits[priority].amount, exits[priority].utxoPos);\n    }\n\n    function startExit(uint256[3] txPos, bytes txBytes, bytes proof, bytes sigs)\n        public\n        payable\n        incrementOldBlocks\n    {\n        var txList = txBytes.toRLPItem().toList();\n        require(txList.length == 11);\n        require(msg.sender == txList[6 + 2 * txPos[2]].toAddress());\n        require(msg.value >= txList[7 + 2 * txPos[2]].toUint() * minExitBond / 100);\n        bytes32 txHash = keccak256(txBytes);\n        bytes32 merkleHash = keccak256(txHash, ByteUtils.slice(sigs, 0, 130));\n        uint256 inputCount = txList[3].toUint() * 1000000 + txList[0].toUint();\n        require(Validate.checkSigs(txHash, childChain[txPos[0]].root, inputCount, sigs));\n        require(merkleHash.checkMembership(txPos[1], childChain[txPos[0]].root, proof));\n        uint256 priority = 1000000000 + txPos[1] * 10000 + txPos[2];\n        uint256 exitId = txPos[0].mul(priority);\n        priority = priority.mul(Math.max(txPos[0], weekOldBlock));\n        require(exitIds[exitId] == 0);\n        require(exits[priority].amount == 0);\n        exitIds[exitId] = priority;\n        exitsQueue.insert(priority);\n        exits[priority] = exit({\n            owner: txList[6 + 2 * txPos[2]].toAddress(),\n            amount: txList[7 + 2 * txPos[2]].toUint(),\n            bond: msg.value,\n            utxoPos: txPos\n        });\n    }\n\n    function challengeExit(uint256 exitId, uint256[3] txPos, bytes txBytes, bytes proof, bytes sigs, bytes confirmationSig)\n        public\n        payable\n    {\n        var txList = txBytes.toRLPItem().toList();\n        require(txList.length == 11);\n        uint256 priority = exitIds[exitId];\n        uint256[3] memory exitsUtxoPos = exits[priority].utxoPos;\n        require(exitsUtxoPos[0] == txList[0 + 2 * exitsUtxoPos[2]].toUint());\n        require(exitsUtxoPos[1] == txList[1 + 2 * exitsUtxoPos[2]].toUint());\n        require(exitsUtxoPos[2] == txList[2 + 2 * exitsUtxoPos[2]].toUint());\n        var txHash = keccak256(txBytes);\n        var confirmationHash = keccak256(txHash, sigs, childChain[txPos[0]].root);\n        var merkleHash = keccak256(txHash, sigs);\n        address owner = exits[priority].owner;\n        require(owner == ECRecovery.recover(confirmationHash, confirmationSig));\n        require(merkleHash.checkMembership(txPos[1], childChain[txPos[0]].root, proof));\n        msg.sender.transfer(exits[priority].bond);\n        delete exits[priority];\n        delete exitIds[exitId];\n    }\n\n    function finalizeExits()\n        public\n        incrementOldBlocks\n        returns (uint256)\n    {\n        uint256 twoWeekOldTimestamp = block.timestamp.sub(2 weeks);\n        exit memory currentExit = exits[exitsQueue.getMin()];\n        while (childChain[currentExit.utxoPos[0]].created_at < twoWeekOldTimestamp && exitsQueue.currentSize() > 0) {\n            // return childChain[currentExit.utxoPos[0]].created_at;\n            uint256 exitId = currentExit.utxoPos[0] * 1000000000 + currentExit.utxoPos[1] * 10000 + currentExit.utxoPos[2];\n            currentExit.owner.transfer(currentExit.amount + currentExit.bond);\n            uint256 priority = exitsQueue.delMin();\n            delete exits[priority];\n            delete exitIds[exitId];\n            currentExit = exits[exitsQueue.getMin()];\n        }\n    }\n\n    function donate() public payable { //Used for testing purposes. Will remove in production\n        return;\n    }\n}\n",
  "sourcePath": "/Users/adityasripal/plasma/plasma/root_chain/contracts/RootChain/RootChain.sol",
  "compiler": {
    "name": "solc",
    "version": "0.4.19+commit.c4cbbb05.Emscripten.clang"
  },
  "schemaVersion": "2.0.0",
  "updatedAt": "2018-03-09T02:00:21.732Z"
}