{
  "contractName": "RootChain",
  "abi": [
    {
      "constant": true,
      "inputs": [],
      "name": "lastParentBlock",
      "outputs": [
        {
          "name": "",
          "type": "uint256"
        }
      ],
      "payable": false,
      "stateMutability": "view",
      "type": "function"
    },
    {
      "constant": true,
      "inputs": [
        {
          "name": "",
          "type": "uint256"
        }
      ],
      "name": "exitIds",
      "outputs": [
        {
          "name": "",
          "type": "uint256"
        }
      ],
      "payable": false,
      "stateMutability": "view",
      "type": "function"
    },
    {
      "constant": true,
      "inputs": [
        {
          "name": "",
          "type": "uint256"
        }
      ],
      "name": "exits",
      "outputs": [
        {
          "name": "owner",
          "type": "address"
        },
        {
          "name": "amount",
          "type": "uint256"
        }
      ],
      "payable": false,
      "stateMutability": "view",
      "type": "function"
    },
    {
      "constant": true,
      "inputs": [],
      "name": "weekOldBlock",
      "outputs": [
        {
          "name": "",
          "type": "uint256"
        }
      ],
      "payable": false,
      "stateMutability": "view",
      "type": "function"
    },
    {
      "constant": true,
      "inputs": [],
      "name": "recentBlock",
      "outputs": [
        {
          "name": "",
          "type": "uint256"
        }
      ],
      "payable": false,
      "stateMutability": "view",
      "type": "function"
    },
    {
      "constant": true,
      "inputs": [],
      "name": "currentChildBlock",
      "outputs": [
        {
          "name": "",
          "type": "uint256"
        }
      ],
      "payable": false,
      "stateMutability": "view",
      "type": "function"
    },
    {
      "constant": true,
      "inputs": [],
      "name": "authority",
      "outputs": [
        {
          "name": "",
          "type": "address"
        }
      ],
      "payable": false,
      "stateMutability": "view",
      "type": "function"
    },
    {
      "constant": true,
      "inputs": [
        {
          "name": "",
          "type": "uint256"
        }
      ],
      "name": "childChain",
      "outputs": [
        {
          "name": "root",
          "type": "bytes32"
        },
        {
          "name": "created_at",
          "type": "uint256"
        }
      ],
      "payable": false,
      "stateMutability": "view",
      "type": "function"
    },
    {
      "inputs": [],
      "payable": false,
      "stateMutability": "nonpayable",
      "type": "constructor"
    },
    {
      "anonymous": false,
      "inputs": [
        {
          "indexed": false,
          "name": "depositor",
          "type": "address"
        },
        {
          "indexed": false,
          "name": "amount",
          "type": "uint256"
        }
      ],
      "name": "Deposit",
      "type": "event"
    },
    {
      "constant": false,
      "inputs": [
        {
          "name": "root",
          "type": "bytes32"
        }
      ],
      "name": "submitBlock",
      "outputs": [],
      "payable": false,
      "stateMutability": "nonpayable",
      "type": "function"
    },
    {
      "constant": false,
      "inputs": [
        {
          "name": "txBytes",
          "type": "bytes"
        }
      ],
      "name": "deposit",
      "outputs": [],
      "payable": true,
      "stateMutability": "payable",
      "type": "function"
    },
    {
      "constant": true,
      "inputs": [
        {
          "name": "blockNumber",
          "type": "uint256"
        }
      ],
      "name": "getChildChain",
      "outputs": [
        {
          "name": "",
          "type": "bytes32"
        },
        {
          "name": "",
          "type": "uint256"
        }
      ],
      "payable": false,
      "stateMutability": "view",
      "type": "function"
    },
    {
      "constant": true,
      "inputs": [
        {
          "name": "priority",
          "type": "uint256"
        }
      ],
      "name": "getExit",
      "outputs": [
        {
          "name": "",
          "type": "address"
        },
        {
          "name": "",
          "type": "uint256"
        },
        {
          "name": "",
          "type": "uint256[3]"
        }
      ],
      "payable": false,
      "stateMutability": "view",
      "type": "function"
    },
    {
      "constant": false,
      "inputs": [
        {
          "name": "txPos",
          "type": "uint256[3]"
        },
        {
          "name": "txBytes",
          "type": "bytes"
        },
        {
          "name": "proof",
          "type": "bytes"
        },
        {
          "name": "sigs",
          "type": "bytes"
        }
      ],
      "name": "startExit",
      "outputs": [],
      "payable": false,
      "stateMutability": "nonpayable",
      "type": "function"
    },
    {
      "constant": false,
      "inputs": [
        {
          "name": "exitId",
          "type": "uint256"
        },
        {
          "name": "txPos",
          "type": "uint256[3]"
        },
        {
          "name": "txBytes",
          "type": "bytes"
        },
        {
          "name": "proof",
          "type": "bytes"
        },
        {
          "name": "sigs",
          "type": "bytes"
        },
        {
          "name": "confirmationSig",
          "type": "bytes"
        }
      ],
      "name": "challengeExit",
      "outputs": [],
      "payable": false,
      "stateMutability": "nonpayable",
      "type": "function"
    },
    {
      "constant": false,
      "inputs": [],
      "name": "finalizeExits",
      "outputs": [
        {
          "name": "",
          "type": "uint256"
        }
      ],
      "payable": false,
      "stateMutability": "nonpayable",
      "type": "function"
    }
  ],
  "bytecode": "0x606060405234156200001057600080fd5b33600460006101000a81548173ffffffffffffffffffffffffffffffffffffffff021916908373ffffffffffffffffffffffffffffffffffffffff1602179055506001600581905550436006819055506200006a620000c7565b604051809103906000f08015156200008157600080fd5b600360006101000a81548173ffffffffffffffffffffffffffffffffffffffff021916908373ffffffffffffffffffffffffffffffffffffffff160217905550620000d8565b6040516108528062002a9983390190565b6129b180620000e86000396000f3006060604052600436106100db576000357c0100000000000000000000000000000000000000000000000000000000900463ffffffff168063117546c5146100e057806316b3884014610109578063342de179146101405780634237b5f3146101aa57806368d6570e146101d35780636f84b6951461032e5780637a95f1e81461035757806385444de31461038057806398b1e06a146103c6578063baa4769414610418578063bf7e214f1461043f578063c6ab44cd14610494578063e60f1ff1146104bd578063eaf61eb514610556578063f95643b114610665575b600080fd5b34156100eb57600080fd5b6100f36106ab565b6040518082815260200191505060405180910390f35b341561011457600080fd5b61012a60048080359060200190919050506106b1565b6040518082815260200191505060405180910390f35b341561014b57600080fd5b61016160048080359060200190919050506106c9565b604051808373ffffffffffffffffffffffffffffffffffffffff1673ffffffffffffffffffffffffffffffffffffffff1681526020018281526020019250505060405180910390f35b34156101b557600080fd5b6101bd61070d565b6040518082815260200191505060405180910390f35b34156101de57600080fd5b61032c6004808035906020019091908060600190600380602002604051908101604052809291908260036020028082843782019150505050509190803590602001908201803590602001908080601f0160208091040260200160405190810160405280939291908181526020018383808284378201915050505050509190803590602001908201803590602001908080601f0160208091040260200160405190810160405280939291908181526020018383808284378201915050505050509190803590602001908201803590602001908080601f0160208091040260200160405190810160405280939291908181526020018383808284378201915050505050509190803590602001908201803590602001908080601f01602080910402602001604051908101604052809392919081815260200183838082843782019150505050505091905050610713565b005b341561033957600080fd5b610341610ba2565b6040518082815260200191505060405180910390f35b341561036257600080fd5b61036a610ba8565b6040518082815260200191505060405180910390f35b341561038b57600080fd5b6103a16004808035906020019091905050610bae565b6040518083600019166000191681526020018281526020019250505060405180910390f35b610416600480803590602001908201803590602001908080601f01602080910402602001604051908101604052809392919081815260200183838082843782019150505050505091905050610be6565b005b341561042357600080fd5b61043d600480803560001916906020019091905050610f45565b005b341561044a57600080fd5b6104526110af565b604051808273ffffffffffffffffffffffffffffffffffffffff1673ffffffffffffffffffffffffffffffffffffffff16815260200191505060405180910390f35b341561049f57600080fd5b6104a76110d5565b6040518082815260200191505060405180910390f35b34156104c857600080fd5b6104de60048080359060200190919050506116fc565b604051808473ffffffffffffffffffffffffffffffffffffffff1673ffffffffffffffffffffffffffffffffffffffff16815260200183815260200182600360200280838360005b83811015610541578082015181840152602081019050610526565b50505050905001935050505060405180910390f35b341561056157600080fd5b6106636004808060600190600380602002604051908101604052809291908260036020028082843782019150505050509190803590602001908201803590602001908080601f0160208091040260200160405190810160405280939291908181526020018383808284378201915050505050509190803590602001908201803590602001908080601f0160208091040260200160405190810160405280939291908181526020018383808284378201915050505050509190803590602001908201803590602001908080601f016020809104026020016040519081016040528093929190818152602001838380828437820191505050505050919050506117b7565b005b341561067057600080fd5b6106866004808035906020019091905050611d67565b6040518083600019166000191681526020018281526020019250505060405180910390f35b60065481565b60026020528060005260406000206000915090505481565b60016020528060005260406000206000915090508060000160009054906101000a900473ffffffffffffffffffffffffffffffffffffffff16908060010154905082565b60085481565b61071b612800565b6000610725612814565b60008060008061073c6107378c611d8b565b611de6565b9650600b875114151561074e57600080fd5b600260008e8152602001908152602001600020549550600160008781526020019081526020016000206002016003806020026040519081016040528092919082600380156107b1576020028201915b81548152602001906001019080831161079d575b505050505094506107f1878660026003811015156107cb57fe5b60200201516002026000018151811015156107e257fe5b90602001906020020151611eb3565b85600060038110151561080057fe5b602002015114151561081157600080fd5b61084a8786600260038110151561082457fe5b602002015160020260010181518110151561083b57fe5b90602001906020020151611eb3565b85600160038110151561085957fe5b602002015114151561086a57600080fd5b6108a38786600260038110151561087d57fe5b602002015160020260020181518110151561089457fe5b90602001906020020151611eb3565b8560026003811015156108b257fe5b60200201511415156108c357600080fd5b8a6040518082805190602001908083835b6020831015156108f957805182526020820191506020810190506020830392506108d4565b6001836020036101000a0380198251168184511680821785525050505050509050019150506040518091039020935083896000808f600060038110151561093c57fe5b602002015181526020019081526020016000206000015460405180846000191660001916815260200183805190602001908083835b6020831015156109965780518252602082019150602081019050602083039250610971565b6001836020036101000a0380198251168184511680821785525050505050509050018260001916600019168152602001935050505060405180910390209250838960405180836000191660001916815260200182805190602001908083835b602083101515610a1a57805182526020820191506020810190506020830392506109f5565b6001836020036101000a03801982511681845116808217855250505050505090500192505050604051809103902091506001600087815260200190815260200160002060000160009054906101000a900473ffffffffffffffffffffffffffffffffffffffff169050610a8d8389611efb565b73ffffffffffffffffffffffffffffffffffffffff168173ffffffffffffffffffffffffffffffffffffffff16141515610ac657600080fd5b610b1c8c6001600381101515610ad857fe5b60200201516000808f6000600381101515610aef57fe5b60200201518152602001908152602001600020600001548c8560001916611ff9909392919063ffffffff16565b1515610b2757600080fd5b60016000878152602001908152602001600020600080820160006101000a81549073ffffffffffffffffffffffffffffffffffffffff02191690556001820160009055600282016000610b7a919061283c565b5050600260008e81526020019081526020016000206000905550505050505050505050505050565b60075481565b60055481565b600080600080848152602001908152602001600020600001546000808581526020019081526020016000206001015491509150915091565b610bee612800565b6000806000610c04610bff86611d8b565b611de6565b9350600b8451141515610c1657600080fd5b5b6006831015610c5b576000610c428585815181101515610c3357fe5b90602001906020020151611eb3565b141515610c4e57600080fd5b8280600101935050610c17565b34610c7d856007815181101515610c6e57fe5b90602001906020020151611eb3565b141515610c8957600080fd5b6000610cac856009815181101515610c9d57fe5b90602001906020020151611eb3565b141515610cb857600080fd5b846040518082805190602001908083835b602083101515610cee5780518252602082019150602081019050602083039250610cc9565b6001836020036101000a03801982511681845116808217855250505050505090500191505060405180910390206082604051805910610d2a5750595b9080825280601f01601f191660200182016040525060405180836000191660001916815260200182805190602001908083835b602083101515610d825780518252602082019150602081019050602083039250610d5d565b6001836020036101000a0380198251168184511680821785525050505050509050019250505060405180910390209050600092505b6010831015610e2d578082604051808360001916600019168152602001826000191660001916815260200192505050604051809103902090508182604051808360001916600019168152602001826000191660001916815260200192505050604051809103902091508280600101935050610db7565b6040805190810160405280826000191681526020014281525060008060055481526020019081526020016000206000820151816000019060001916905560208201518160010155905050610e8d60016005546120d690919063ffffffff16565b6005819055507fe1fffcc4923d04b559f4d29a8bfc6cda04eb5b0d3c460751c2402c5c5cc9109c610ed5856006815181101515610ec657fe5b906020019060200201516120f4565b610ef6866007815181101515610ee757fe5b90602001906020020151611eb3565b604051808373ffffffffffffffffffffffffffffffffffffffff1673ffffffffffffffffffffffffffffffffffffffff1681526020018281526020019250505060405180910390a15050505050565b600460009054906101000a900473ffffffffffffffffffffffffffffffffffffffff1673ffffffffffffffffffffffffffffffffffffffff163373ffffffffffffffffffffffffffffffffffffffff16141515610fa157600080fd5b5b610fb862093a804261213b90919063ffffffff16565b600080600854815260200190815260200160002060010154101561101c5760008060006008548152602001908152602001600020600101541415610ffb5761101c565b61101160016008546120d690919063ffffffff16565b600881905550610fa2565b611031600680546120d690919063ffffffff16565b431015151561103f57600080fd5b604080519081016040528082600019168152602001428152506000806005548152602001908152602001600020600082015181600001906000191690556020820151816001015590505061109f60016005546120d690919063ffffffff16565b6005819055504360068190555050565b600460009054906101000a900473ffffffffffffffffffffffffffffffffffffffff1681565b6000806110e0612851565b6000805b6110fa62093a804261213b90919063ffffffff16565b600080600854815260200190815260200160002060010154101561115e576000806000600854815260200190815260200160002060010154141561113d5761115e565b61115360016008546120d690919063ffffffff16565b6008819055506110e4565b611174621275004261213b90919063ffffffff16565b935060016000600360009054906101000a900473ffffffffffffffffffffffffffffffffffffffff1673ffffffffffffffffffffffffffffffffffffffff1663d6362e976000604051602001526040518163ffffffff167c0100000000000000000000000000000000000000000000000000000000028152600401602060405180830381600087803b151561120857600080fd5b6102c65a03f1151561121957600080fd5b505050604051805190508152602001908152602001600020606060405190810160405290816000820160009054906101000a900473ffffffffffffffffffffffffffffffffffffffff1673ffffffffffffffffffffffffffffffffffffffff1673ffffffffffffffffffffffffffffffffffffffff16815260200160018201548152602001600282016003806020026040519081016040528092919082600380156112d9576020028201915b8154815260200190600101908083116112c5575b50505050508152505092505b83600080856040015160006003811015156112fc57fe5b60200201518152602001908152602001600020600101541080156113c857506000600360009054906101000a900473ffffffffffffffffffffffffffffffffffffffff1673ffffffffffffffffffffffffffffffffffffffff1663bda1504b6000604051602001526040518163ffffffff167c0100000000000000000000000000000000000000000000000000000000028152600401602060405180830381600087803b15156113ab57600080fd5b6102c65a03f115156113bc57600080fd5b50505060405180519050115b156116f557826040015160026003811015156113e057fe5b6020020151612710846040015160016003811015156113fb57fe5b602002015102633b9aca008560400151600060038110151561141957fe5b60200201510201019150826000015173ffffffffffffffffffffffffffffffffffffffff166108fc84602001519081150290604051600060405180830381858888f19350505050151561146b57600080fd5b600360009054906101000a900473ffffffffffffffffffffffffffffffffffffffff1673ffffffffffffffffffffffffffffffffffffffff1663b07576ac6000604051602001526040518163ffffffff167c0100000000000000000000000000000000000000000000000000000000028152600401602060405180830381600087803b15156114f957600080fd5b6102c65a03f1151561150a57600080fd5b50505060405180519050905060016000828152602001908152602001600020600080820160006101000a81549073ffffffffffffffffffffffffffffffffffffffff02191690556001820160009055600282016000611569919061283c565b5050600260008381526020019081526020016000206000905560016000600360009054906101000a900473ffffffffffffffffffffffffffffffffffffffff1673ffffffffffffffffffffffffffffffffffffffff1663d6362e976000604051602001526040518163ffffffff167c0100000000000000000000000000000000000000000000000000000000028152600401602060405180830381600087803b151561161457600080fd5b6102c65a03f1151561162557600080fd5b505050604051805190508152602001908152602001600020606060405190810160405290816000820160009054906101000a900473ffffffffffffffffffffffffffffffffffffffff1673ffffffffffffffffffffffffffffffffffffffff1673ffffffffffffffffffffffffffffffffffffffff16815260200160018201548152602001600282016003806020026040519081016040528092919082600380156116e5576020028201915b8154815260200190600101908083116116d1575b50505050508152505092506112e5565b5050505090565b600080611707612814565b6001600085815260200190815260200160002060000160009054906101000a900473ffffffffffffffffffffffffffffffffffffffff16600160008681526020019081526020016000206001015460016000878152602001908152602001600020600201806003806020026040519081016040528092919082600380156117a3576020028201915b81548152602001906001019080831161178f575b505050505090509250925092509193909250565b6117bf612800565b60008060008060005b6117de62093a804261213b90919063ffffffff16565b6000806008548152602001908152602001600020600101541015611842576000806000600854815260200190815260200160002060010154141561182157611842565b61183760016008546120d690919063ffffffff16565b6008819055506117c8565b61185361184e8a611d8b565b611de6565b9550600b865114151561186557600080fd5b61189e868b600260038110151561187857fe5b602002015160020260060181518110151561188f57fe5b906020019060200201516120f4565b73ffffffffffffffffffffffffffffffffffffffff163373ffffffffffffffffffffffffffffffffffffffff161415156118d757600080fd5b886040518082805190602001908083835b60208310151561190d57805182526020820191506020810190506020830392506118e8565b6001836020036101000a038019825116818451168082178552505050505050905001915050604051809103902094508461194a8860006082612154565b60405180836000191660001916815260200182805190602001908083835b60208310151561198d5780518252602082019150602081019050602083039250611968565b6001836020036101000a03801982511681845116808217855250505050505090500192505050604051809103902093506119de8660008151811015156119cf57fe5b90602001906020020151611eb3565b620f4240611a038860038151811015156119f457fe5b90602001906020020151611eb3565b02019250611a3b856000808d6000600381101515611a1d57fe5b6020020151815260200190815260200160002060000154858a6121b3565b1515611a4657600080fd5b611a9c8a6001600381101515611a5857fe5b60200201516000808d6000600381101515611a6f57fe5b60200201518152602001908152602001600020600001548a8760001916611ff9909392919063ffffffff16565b1515611aa757600080fd5b896002600381101515611ab657fe5b60200201516127108b6001600381101515611acd57fe5b602002015102633b9aca0001019150611b02828b6000600381101515611aef57fe5b602002015161245790919063ffffffff16565b9050611b35611b268b6000600381101515611b1957fe5b6020020151600854612492565b8361245790919063ffffffff16565b915060006002600083815260200190815260200160002054141515611b5957600080fd5b60006001600084815260200190815260200160002060010154141515611b7e57600080fd5b816002600083815260200190815260200160002081905550600360009054906101000a900473ffffffffffffffffffffffffffffffffffffffff1673ffffffffffffffffffffffffffffffffffffffff166390b5561d836040518263ffffffff167c010000000000000000000000000000000000000000000000000000000002815260040180828152602001915050600060405180830381600087803b1515611c2657600080fd5b6102c65a03f11515611c3757600080fd5b505050606060405190810160405280611c7f888d6002600381101515611c5957fe5b6020020151600202600601815181101515611c7057fe5b906020019060200201516120f4565b73ffffffffffffffffffffffffffffffffffffffff168152602001611cd3888d6002600381101515611cad57fe5b6020020151600202600701815181101515611cc457fe5b90602001906020020151611eb3565b81526020018b8152506001600084815260200190815260200160002060008201518160000160006101000a81548173ffffffffffffffffffffffffffffffffffffffff021916908373ffffffffffffffffffffffffffffffffffffffff16021790555060208201518160010155604082015181600201906003611d5792919061288f565b5090505050505050505050505050565b60006020528060005260406000206000915090508060000154908060010154905082565b611d936128cf565b600080835191506000821415611dc15760408051908101604052806000815260200160008152509250611ddf565b60208401905060408051908101604052808281526020018381525092505b5050919050565b611dee612800565b6000611df86128e9565b6000611e03856124ae565b1515611e0e57600080fd5b611e17856124e0565b925082604051805910611e275750595b908082528060200260200182016040528015611e5d57816020015b611e4a61290a565b815260200190600190039081611e425790505b509350611e698561255a565b91505b611e75826125a2565b15611eab57611e83826125cc565b8482815181101515611e9157fe5b906020019060200201819052508080600101915050611e6c565b505050919050565b6000806000611ec184612628565b1515611ecc57600080fd5b611ed584612659565b915091506020811115611ee757600080fd5b806020036101000a82510492505050919050565b60008060008060418551141515611f155760009350611ff0565b6020850151925060408501519150606085015160001a9050601b8160ff161015611f4057601b810190505b601b8160ff1614158015611f585750601c8160ff1614155b15611f665760009350611ff0565b600186828585604051600081526020016040526000604051602001526040518085600019166000191681526020018460ff1660ff16815260200183600019166000191681526020018260001916600019168152602001945050505050602060405160208103908084039060008661646e5a03f11515611fe457600080fd5b50506020604051035193505b50505092915050565b600080600080610200855114151561201057600080fd5b879150602090505b610200811115156120be57808501519250600060028881151561203757fe5b061415612073578183604051808360001916600019168152602001826000191660001916815260200192505050604051809103902091506120a4565b8282604051808360001916600019168152602001826000191660001916815260200192505050604051809103902091505b6002878115156120b057fe5b049650602081019050612018565b85600019168260001916149350505050949350505050565b60008082840190508381101515156120ea57fe5b8091505092915050565b600080600061210284612628565b151561210d57600080fd5b61211684612659565b9150915060148114151561212957600080fd5b600c6101000a82510492505050919050565b600082821115151561214957fe5b818303905092915050565b61215c612924565b612164612924565b6040519050601f831680820184810186838901015b818310156121965780518352602083019250602081019050612179565b50858452601f19601f830116604052505050809150509392505050565b60006121bd612924565b6121c5612924565b6121cd612924565b60006121d7612924565b600080600060418a518115156121e957fe5b061480156121fa5750610104895111155b151561220557600080fd5b6122128960006041612154565b965061222089604180612154565b955061222f8960826041612154565b94508b87878d60405180856000191660001916815260200184805190602001908083835b6020831015156122785780518252602082019150602081019050602083039250612253565b6001836020036101000a03801982511681845116808217855250505050505090500183805190602001908083835b6020831015156122cb57805182526020820191506020810190506020830392506122a6565b6001836020036101000a03801982511681845116808217855250505050505090500182600019166000191681526020019450505050506040518091039020935060008a14156123535761231e8486611efb565b73ffffffffffffffffffffffffffffffffffffffff163373ffffffffffffffffffffffffffffffffffffffff16149750612448565b620f42408a10156123a6576123688486611efb565b73ffffffffffffffffffffffffffffffffffffffff166123888d89611efb565b73ffffffffffffffffffffffffffffffffffffffff16149750612448565b6123b38960c36041612154565b92506123bf8486611efb565b73ffffffffffffffffffffffffffffffffffffffff166123df8d89611efb565b73ffffffffffffffffffffffffffffffffffffffff161491506124028484611efb565b73ffffffffffffffffffffffffffffffffffffffff166124228d88611efb565b73ffffffffffffffffffffffffffffffffffffffff161490508180156124455750805b97505b50505050505050949350505050565b600080600084141561246c576000915061248b565b828402905082848281151561247d57fe5b0414151561248757fe5b8091505b5092915050565b6000818311156124a4578290506124a8565b8190505b92915050565b6000806000836020015114156124c757600091506124da565b8260000151905060c0815160001a101591505b50919050565b6000806000806000806124f2876124ae565b15156125015760009550612550565b86600001519350835160001a9450612518876126da565b840192506001876020015185010391505b818311151561254c5761253b83612766565b830192508080600101915050612529565b8095505b5050505050919050565b6125626128e9565b600061256d836124ae565b151561257857600080fd5b612581836126da565b83600001510190508282600001819052508082602001818152505050919050565b60006125ac6128cf565b826000015190508060200151816000015101836020015110915050919050565b6125d46128cf565b6000806125e0846125a2565b1561261c57836020015191506125f582612766565b90508183600001818152505080836020018181525050808201846020018181525050612621565b600080fd5b5050919050565b6000806000836020015114156126415760009150612653565b8260000151905060c0815160001a1091505b50919050565b600080600080600061266a86612628565b151561267557600080fd5b85600001519150815160001a9250608083101561269857819450600193506126d2565b60b88310156126b657600186602001510393506001820194506126d1565b60b78303905080600187602001510303935060018183010194505b5b505050915091565b600080600080846020015114156126f4576000925061275f565b83600001519050805160001a91506080821015612714576000925061275f565b60b8821080612730575060c0821015801561272f575060f882105b5b1561273e576001925061275f565b60c082101561275557600160b7830301925061275f565b600160f783030192505b5050919050565b600080825160001a9050608081101561278257600191506127fa565b60b8811015612799576001608082030191506127f9565b60c08110156127c35760b78103806020036101000a600185015104808201600101935050506127f8565b60f88110156127da57600160c082030191506127f7565b60f78103806020036101000a600185015104808201600101935050505b5b5b5b50919050565b602060405190810160405280600081525090565b6060604051908101604052806003905b60008152602001906001900390816128245790505090565b50600081556001016000815560010160009055565b60a060405190810160405280600073ffffffffffffffffffffffffffffffffffffffff16815260200160008152602001612889612938565b81525090565b82600381019282156128be579160200282015b828111156128bd5782518255916020019190600101906128a2565b5b5090506128cb9190612960565b5090565b604080519081016040528060008152602001600081525090565b6060604051908101604052806128fd61290a565b8152602001600081525090565b604080519081016040528060008152602001600081525090565b602060405190810160405280600081525090565b6060604051908101604052806003905b60008152602001906001900390816129485790505090565b61298291905b8082111561297e576000816000905550600101612966565b5090565b905600a165627a7a72305820ae31c77c0e0e053ead150ece3185a34bd1d2666bd7c1f2242f534e17d61794fa00296060604052341561000f57600080fd5b336000806101000a81548173ffffffffffffffffffffffffffffffffffffffff021916908373ffffffffffffffffffffffffffffffffffffffff160217905550602060405190810160405280600060ff168152506001906001610073929190610081565b5060006002819055506100f8565b8280548282559060005260206000209081019282156100c2579160200282015b828111156100c1578251829060ff169055916020019190600101906100a1565b5b5090506100cf91906100d3565b5090565b6100f591905b808211156100f15760008160009055506001016100d9565b5090565b90565b61074b806101076000396000f30060606040526004361061006d576000357c0100000000000000000000000000000000000000000000000000000000900463ffffffff1680632dcdcd0c1461007257806390b5561d146100a9578063b07576ac146100cc578063bda1504b146100f5578063d6362e971461011e575b600080fd5b341561007d57600080fd5b6100936004808035906020019091905050610147565b6040518082815260200191505060405180910390f35b34156100b457600080fd5b6100ca6004808035906020019091905050610253565b005b34156100d757600080fd5b6100df610301565b6040518082815260200191505060405180910390f35b341561010057600080fd5b610108610404565b6040518082815260200191505060405180910390f35b341561012957600080fd5b61013161040a565b6040518082815260200191505060405180910390f35b6000600254610173600161016560028661042c90919063ffffffff16565b61046790919063ffffffff16565b11156101945761018d60028361042c90919063ffffffff16565b905061024e565b60016101bd60016101af60028661042c90919063ffffffff16565b61046790919063ffffffff16565b8154811015156101c957fe5b90600052602060002090015460016101eb60028561042c90919063ffffffff16565b8154811015156101f757fe5b90600052602060002090015410156102245761021d60028361042c90919063ffffffff16565b905061024e565b61024b600161023d60028561042c90919063ffffffff16565b61046790919063ffffffff16565b90505b919050565b6000809054906101000a900473ffffffffffffffffffffffffffffffffffffffff1673ffffffffffffffffffffffffffffffffffffffff163373ffffffffffffffffffffffffffffffffffffffff161415156102ae57600080fd5b600180548060010182816102c291906106ce565b9160005260206000209001600083909190915055506102ed600160025461046790919063ffffffff16565b6002819055506102fe600254610485565b50565b6000806000809054906101000a900473ffffffffffffffffffffffffffffffffffffffff1673ffffffffffffffffffffffffffffffffffffffff163373ffffffffffffffffffffffffffffffffffffffff1614151561035f57600080fd5b60018081548110151561036e57fe5b9060005260206000209001549050600160025481548110151561038d57fe5b9060005260206000209001546001808154811015156103a857fe5b90600052602060002090018190555060016002548154811015156103c857fe5b9060005260206000209001600090556103ed60016002546105ae90919063ffffffff16565b6002819055506103fd60016105c7565b8091505090565b60025481565b600060018081548110151561041b57fe5b906000526020600020900154905090565b60008060008414156104415760009150610460565b828402905082848281151561045257fe5b0414151561045c57fe5b8091505b5092915050565b600080828401905083811015151561047b57fe5b8091505092915050565b60005b600061049e6002846106b390919063ffffffff16565b11156105aa5760016104ba6002846106b390919063ffffffff16565b8154811015156104c657fe5b9060005260206000209001546001838154811015156104e157fe5b906000526020600020900154101561058f5760016105096002846106b390919063ffffffff16565b81548110151561051557fe5b906000526020600020900154905060018281548110151561053257fe5b90600052602060002090015460016105546002856106b390919063ffffffff16565b81548110151561056057fe5b9060005260206000209001819055508060018381548110151561057f57fe5b9060005260206000209001819055505b6105a36002836106b390919063ffffffff16565b9150610488565b5050565b60008282111515156105bc57fe5b818303905092915050565b6000805b6002546105e260028561042c90919063ffffffff16565b1115156106ae576105f283610147565b915060018281548110151561060357fe5b90600052602060002090015460018481548110151561061e57fe5b90600052602060002090015411156106a65760018381548110151561063f57fe5b906000526020600020900154905060018281548110151561065c57fe5b90600052602060002090015460018481548110151561067757fe5b9060005260206000209001819055508060018381548110151561069657fe5b9060005260206000209001819055505b8192506105cb565b505050565b60008082848115156106c157fe5b0490508091505092915050565b8154818355818115116106f5578183600052602060002091820191016106f491906106fa565b5b505050565b61071c91905b80821115610718576000816000905550600101610700565b5090565b905600a165627a7a723058208f45e3a5cccdcb4756029e5946d376bde977911e4c845cd9792553799027ac840029",
  "source": "pragma solidity ^0.4.18;\nimport '../Libraries/SafeMath.sol';\nimport '../Libraries/Math.sol';\nimport '../Libraries/RLP.sol';\nimport '../Libraries/Merkle.sol';\nimport '../Libraries/Merkle.sol';\nimport '../Libraries/Validate.sol';\nimport '../DataStructures/PriorityQueue.sol';\n\n\ncontract RootChain {\n    using SafeMath for uint256;\n    using RLP for bytes;\n    using RLP for RLP.RLPItem;\n    using RLP for RLP.Iterator;\n    using Merkle for bytes32;\n\n    //TODO: Refactor submit block to have block number included. Aggregate signatures for start exit. Create Withdraw method.\n    //TODO: Create reward system to incentivize fraud proofs\n    //TODO: Create efficient fraud proofs for invalid blocks and slash block proposer\n\n    /*\n     * Events\n     */\n    event Deposit(address depositor, uint256 amount);\n\n    /*\n     *  Storage\n     */\n    mapping(uint256 => childBlock) public childChain;\n    mapping(uint256 => exit) public exits;\n    mapping(uint256 => uint256) public exitIds;\n    PriorityQueue exitsQueue;\n    address public authority;\n    uint256 public currentChildBlock;\n    uint256 public lastParentBlock;\n    uint256 public recentBlock;\n    uint256 public weekOldBlock;\n\n    struct exit {\n        address owner;\n        uint256 amount;\n        uint256[3] utxoPos;\n    }\n\n    struct childBlock {\n        bytes32 root;\n        uint256 created_at;\n    }\n\n    /*\n     *  Modifiers\n     */\n    modifier isAuthority() {\n        require(msg.sender == authority);\n        _;\n    }\n\n    modifier incrementOldBlocks() {\n        while (childChain[weekOldBlock].created_at < block.timestamp.sub(1 weeks)) {\n            if (childChain[weekOldBlock].created_at == 0) \n                break;\n            weekOldBlock = weekOldBlock.add(1);\n        }\n        _;\n    }\n\n    function RootChain()\n        public\n    {\n        authority = msg.sender;\n        currentChildBlock = 1;\n        lastParentBlock = block.number;\n        exitsQueue = new PriorityQueue();\n    }\n\n    function submitBlock(bytes32 root)\n        public\n        isAuthority\n        incrementOldBlocks\n    {\n        require(block.number >= lastParentBlock.add(6));\n        childChain[currentChildBlock] = childBlock({\n            root: root,\n            created_at: block.timestamp\n        });\n        currentChildBlock = currentChildBlock.add(1);\n        lastParentBlock = block.number;\n    }\n\n    function deposit(bytes txBytes)\n        public\n        payable\n    {\n        var txList = txBytes.toRLPItem().toList();\n        require(txList.length == 11);\n        for (uint256 i; i < 6; i++) {\n            require(txList[i].toUint() == 0);\n        }\n        require(txList[7].toUint() == msg.value);\n        require(txList[9].toUint() == 0);\n        bytes32 zeroBytes;\n        bytes32 root = keccak256(keccak256(txBytes), new bytes(130));\n        for (i = 0; i < 16; i++) {\n            root = keccak256(root, zeroBytes);\n            zeroBytes = keccak256(zeroBytes, zeroBytes);\n        }\n        childChain[currentChildBlock] = childBlock({\n            root: root,\n            created_at: block.timestamp\n        });\n        currentChildBlock = currentChildBlock.add(1);\n        Deposit(txList[6].toAddress(), txList[7].toUint());\n    }\n\n    function getChildChain(uint256 blockNumber)\n        public\n        view\n        returns (bytes32, uint256)\n    {\n        return (childChain[blockNumber].root, childChain[blockNumber].created_at);\n    }\n\n    function getExit(uint256 priority)\n        public\n        view\n        returns (address, uint256, uint256[3])\n    {\n        return (exits[priority].owner, exits[priority].amount, exits[priority].utxoPos);\n    }\n\n    function startExit(uint256[3] txPos, bytes txBytes, bytes proof, bytes sigs)\n        public\n        incrementOldBlocks\n    {\n        var txList = txBytes.toRLPItem().toList();\n        require(txList.length == 11);\n        require(msg.sender == txList[6 + 2 * txPos[2]].toAddress());\n        bytes32 txHash = keccak256(txBytes);\n        bytes32 merkleHash = keccak256(txHash, ByteUtils.slice(sigs, 0, 130));\n        uint256 inputCount = txList[3].toUint() * 1000000 + txList[0].toUint();\n        require(Validate.checkSigs(txHash, childChain[txPos[0]].root, inputCount, sigs));\n        require(merkleHash.checkMembership(txPos[1], childChain[txPos[0]].root, proof));\n        uint256 priority = 1000000000 + txPos[1] * 10000 + txPos[2];\n        uint256 exitId = txPos[0].mul(priority);\n        priority = priority.mul(Math.max(txPos[0], weekOldBlock));\n        require(exitIds[exitId] == 0);\n        require(exits[priority].amount == 0);\n        exitIds[exitId] = priority;\n        exitsQueue.insert(priority);\n        exits[priority] = exit({\n            owner: txList[6 + 2 * txPos[2]].toAddress(),\n            amount: txList[7 + 2 * txPos[2]].toUint(),\n            utxoPos: txPos\n        });\n    }\n\n    function challengeExit(uint256 exitId, uint256[3] txPos, bytes txBytes, bytes proof, bytes sigs, bytes confirmationSig)\n        public\n    {\n        var txList = txBytes.toRLPItem().toList();\n        require(txList.length == 11);\n        uint256 priority = exitIds[exitId];\n        uint256[3] memory exitsUtxoPos = exits[priority].utxoPos;\n        require(exitsUtxoPos[0] == txList[0 + 2 * exitsUtxoPos[2]].toUint());\n        require(exitsUtxoPos[1] == txList[1 + 2 * exitsUtxoPos[2]].toUint());\n        require(exitsUtxoPos[2] == txList[2 + 2 * exitsUtxoPos[2]].toUint());\n        var txHash = keccak256(txBytes);\n        var confirmationHash = keccak256(txHash, sigs, childChain[txPos[0]].root);\n        var merkleHash = keccak256(txHash, sigs);\n        address owner = exits[priority].owner;\n        require(owner == ECRecovery.recover(confirmationHash, confirmationSig));\n        require(merkleHash.checkMembership(txPos[1], childChain[txPos[0]].root, proof));\n        delete exits[priority];\n        delete exitIds[exitId];\n    }\n\n    function finalizeExits()\n        public\n        incrementOldBlocks\n        returns (uint256)\n    {\n        uint256 twoWeekOldTimestamp = block.timestamp.sub(2 weeks);\n        exit memory currentExit = exits[exitsQueue.getMin()];\n        while (childChain[currentExit.utxoPos[0]].created_at < twoWeekOldTimestamp && exitsQueue.currentSize() > 0) {\n            // return childChain[currentExit.utxoPos[0]].created_at;\n            uint256 exitId = currentExit.utxoPos[0] * 1000000000 + currentExit.utxoPos[1] * 10000 + currentExit.utxoPos[2];\n            currentExit.owner.transfer(currentExit.amount);\n            uint256 priority = exitsQueue.delMin();\n            delete exits[priority];\n            delete exitIds[exitId];\n            currentExit = exits[exitsQueue.getMin()];\n        }\n    }\n}\n",
  "sourcePath": "/Users/adityasripal/plasma/plasma/root_chain/contracts/RootChain/RootChain.sol",
  "compiler": {
    "name": "solc",
    "version": "0.4.19+commit.c4cbbb05.Emscripten.clang"
  },
  "schemaVersion": "2.0.0",
  "updatedAt": "2018-03-07T00:57:53.659Z"
}