{
  "contractName": "RootChain",
  "abi": [
    {
      "constant": true,
      "inputs": [],
      "name": "lastParentBlock",
      "outputs": [
        {
          "name": "",
          "type": "uint256"
        }
      ],
      "payable": false,
      "stateMutability": "view",
      "type": "function"
    },
    {
      "constant": true,
      "inputs": [
        {
          "name": "",
          "type": "address"
        }
      ],
      "name": "balances",
      "outputs": [
        {
          "name": "",
          "type": "uint256"
        }
      ],
      "payable": false,
      "stateMutability": "view",
      "type": "function"
    },
    {
      "constant": true,
      "inputs": [
        {
          "name": "",
          "type": "uint256"
        }
      ],
      "name": "exits",
      "outputs": [
        {
          "name": "owner",
          "type": "address"
        },
        {
          "name": "amount",
          "type": "uint256"
        },
        {
          "name": "created_at",
          "type": "uint256"
        }
      ],
      "payable": false,
      "stateMutability": "view",
      "type": "function"
    },
    {
      "constant": true,
      "inputs": [],
      "name": "currentChildBlock",
      "outputs": [
        {
          "name": "",
          "type": "uint256"
        }
      ],
      "payable": false,
      "stateMutability": "view",
      "type": "function"
    },
    {
      "constant": true,
      "inputs": [],
      "name": "authority",
      "outputs": [
        {
          "name": "",
          "type": "address"
        }
      ],
      "payable": false,
      "stateMutability": "view",
      "type": "function"
    },
    {
      "constant": true,
      "inputs": [
        {
          "name": "",
          "type": "uint256"
        }
      ],
      "name": "childChain",
      "outputs": [
        {
          "name": "root",
          "type": "bytes32"
        },
        {
          "name": "created_at",
          "type": "uint256"
        }
      ],
      "payable": false,
      "stateMutability": "view",
      "type": "function"
    },
    {
      "inputs": [],
      "payable": false,
      "stateMutability": "nonpayable",
      "type": "constructor"
    },
    {
      "anonymous": false,
      "inputs": [
        {
          "indexed": false,
          "name": "depositor",
          "type": "address"
        },
        {
          "indexed": false,
          "name": "amount",
          "type": "uint256"
        }
      ],
      "name": "Deposit",
      "type": "event"
    },
    {
      "constant": false,
      "inputs": [
        {
          "name": "root",
          "type": "bytes32"
        }
      ],
      "name": "submitBlock",
      "outputs": [],
      "payable": false,
      "stateMutability": "nonpayable",
      "type": "function"
    },
    {
      "constant": false,
      "inputs": [
        {
          "name": "txBytes",
          "type": "bytes"
        }
      ],
      "name": "deposit",
      "outputs": [],
      "payable": true,
      "stateMutability": "payable",
      "type": "function"
    },
    {
      "constant": true,
      "inputs": [
        {
          "name": "blockNumber",
          "type": "uint256"
        }
      ],
      "name": "getChildChain",
      "outputs": [
        {
          "name": "",
          "type": "bytes32"
        },
        {
          "name": "",
          "type": "uint256"
        }
      ],
      "payable": false,
      "stateMutability": "view",
      "type": "function"
    },
    {
      "constant": true,
      "inputs": [
        {
          "name": "priority",
          "type": "uint256"
        }
      ],
      "name": "getExit",
      "outputs": [
        {
          "name": "",
          "type": "address"
        },
        {
          "name": "",
          "type": "uint256"
        },
        {
          "name": "",
          "type": "uint256[3]"
        },
        {
          "name": "",
          "type": "uint256"
        }
      ],
      "payable": false,
      "stateMutability": "view",
      "type": "function"
    },
    {
      "constant": false,
      "inputs": [
        {
          "name": "txPos",
          "type": "uint256[3]"
        },
        {
          "name": "txBytes",
          "type": "bytes"
        },
        {
          "name": "proof",
          "type": "bytes"
        },
        {
          "name": "sigs",
          "type": "bytes"
        }
      ],
      "name": "startExit",
      "outputs": [],
      "payable": true,
      "stateMutability": "payable",
      "type": "function"
    },
    {
      "constant": false,
      "inputs": [
        {
          "name": "txPos",
          "type": "uint256[3]"
        },
        {
          "name": "txBytes",
          "type": "bytes"
        },
        {
          "name": "proof",
          "type": "bytes"
        },
        {
          "name": "sigs",
          "type": "bytes"
        },
        {
          "name": "confirmationSig",
          "type": "bytes"
        }
      ],
      "name": "challengeExit",
      "outputs": [],
      "payable": false,
      "stateMutability": "nonpayable",
      "type": "function"
    },
    {
      "constant": false,
      "inputs": [],
      "name": "finalizeExits",
      "outputs": [],
      "payable": false,
      "stateMutability": "nonpayable",
      "type": "function"
    },
    {
      "constant": false,
      "inputs": [],
      "name": "withdraw",
      "outputs": [
        {
          "name": "",
          "type": "uint256"
        }
      ],
      "payable": false,
      "stateMutability": "nonpayable",
      "type": "function"
    }
  ],
  "bytecode": "0x606060405234156200001057600080fd5b600080336000806101000a81548173ffffffffffffffffffffffffffffffffffffffff021916908373ffffffffffffffffffffffffffffffffffffffff1602179055506001600681905550436007819055506200006c62000139565b604051809103906000f08015156200008357600080fd5b600360006101000a81548173ffffffffffffffffffffffffffffffffffffffff021916908373ffffffffffffffffffffffffffffffffffffffff160217905550612710600481905550600090505b6010811015620001315781600882601081101515620000ec57fe5b018160001916905550818260405180836000191660001916815260200182600019166000191681526020019250505060405180910390209150600181019050620000d1565b50506200014a565b6040516108528062002c5e83390190565b612b04806200015a6000396000f3006060604052600436106100d0576000357c0100000000000000000000000000000000000000000000000000000000900463ffffffff168063117546c5146100d557806327e235e3146100fe578063342de1791461014b5780633ccfd60b146101bc5780637a95f1e8146101e557806380c594591461020e57806385444de31461036057806398b1e06a146103a6578063baa47694146103f8578063bf7e214f1461041f578063c6ab44cd14610474578063e60f1ff114610489578063eaf61eb514610529578063f95643b11461062d575b600080fd5b34156100e057600080fd5b6100e8610673565b6040518082815260200191505060405180910390f35b341561010957600080fd5b610135600480803573ffffffffffffffffffffffffffffffffffffffff16906020019091905050610679565b6040518082815260200191505060405180910390f35b341561015657600080fd5b61016c6004808035906020019091905050610691565b604051808473ffffffffffffffffffffffffffffffffffffffff1673ffffffffffffffffffffffffffffffffffffffff168152602001838152602001828152602001935050505060405180910390f35b34156101c757600080fd5b6101cf6106db565b6040518082815260200191505060405180910390f35b34156101f057600080fd5b6101f86107fc565b6040518082815260200191505060405180910390f35b341561021957600080fd5b61035e6004808060600190600380602002604051908101604052809291908260036020028082843782019150505050509190803590602001908201803590602001908080601f0160208091040260200160405190810160405280939291908181526020018383808284378201915050505050509190803590602001908201803590602001908080601f0160208091040260200160405190810160405280939291908181526020018383808284378201915050505050509190803590602001908201803590602001908080601f0160208091040260200160405190810160405280939291908181526020018383808284378201915050505050509190803590602001908201803590602001908080601f01602080910402602001604051908101604052809392919081815260200183838082843782019150505050505091905050610802565b005b341561036b57600080fd5b6103816004808035906020019091905050610d49565b6040518083600019166000191681526020018281526020019250505060405180910390f35b6103f6600480803590602001908201803590602001908080601f01602080910402602001604051908101604052809392919081815260200183838082843782019150505050505091905050610d83565b005b341561040357600080fd5b61041d6004808035600019169060200190919050506110a4565b005b341561042a57600080fd5b610432611194565b604051808273ffffffffffffffffffffffffffffffffffffffff1673ffffffffffffffffffffffffffffffffffffffff16815260200191505060405180910390f35b341561047f57600080fd5b6104876111b9565b005b341561049457600080fd5b6104aa60048080359060200190919050506119ae565b604051808573ffffffffffffffffffffffffffffffffffffffff1673ffffffffffffffffffffffffffffffffffffffff16815260200184815260200183600360200280838360005b8381101561050d5780820151818401526020810190506104f2565b5050505090500182815260200194505050505060405180910390f35b61062b6004808060600190600380602002604051908101604052809291908260036020028082843782019150505050509190803590602001908201803590602001908080601f0160208091040260200160405190810160405280939291908181526020018383808284378201915050505050509190803590602001908201803590602001908080601f0160208091040260200160405190810160405280939291908181526020018383808284378201915050505050509190803590602001908201803590602001908080601f01602080910402602001604051908101604052809392919081815260200183838082843782019150505050505091905050611a84565b005b341561063857600080fd5b61064e6004808035906020019091905050611f4d565b6040518083600019166000191681526020018281526020019250505060405180910390f35b60075481565b60026020528060005260406000206000915090505481565b60056020528060005260406000206000915090508060000160009054906101000a900473ffffffffffffffffffffffffffffffffffffffff16908060010154908060020154905083565b6000806000600260003373ffffffffffffffffffffffffffffffffffffffff1673ffffffffffffffffffffffffffffffffffffffff16815260200190815260200160002054141561072f57600091506107f8565b600260003373ffffffffffffffffffffffffffffffffffffffff1673ffffffffffffffffffffffffffffffffffffffff168152602001908152602001600020549050600260003373ffffffffffffffffffffffffffffffffffffffff1673ffffffffffffffffffffffffffffffffffffffff168152602001908152602001600020600090553373ffffffffffffffffffffffffffffffffffffffff166108fc829081150290604051600060405180830381858888f1935050505015156107f457600080fd5b8091505b5090565b60065481565b61080a61294c565b6000610814612960565b600080600061082a6108258b611f71565b611fcc565b9550600b865114151561083c57600080fd5b8a600060038110151561084b57fe5b60200201518b600160038110151561085f57fe5b6020020151612710028c600060038110151561087757fe5b6020020151633b9aca000201019450600560008681526020019081526020016000206003016003806020026040519081016040528092919082600380156108d3576020028201915b8154815260200190600101908083116108bf575b50505050509350610913868560026003811015156108ed57fe5b602002015160020260000181518110151561090457fe5b90602001906020020151612099565b84600060038110151561092257fe5b602002015114151561093357600080fd5b61096c8685600260038110151561094657fe5b602002015160020260010181518110151561095d57fe5b90602001906020020151612099565b84600160038110151561097b57fe5b602002015114151561098c57600080fd5b6109c58685600260038110151561099f57fe5b60200201516002026002018151811015156109b657fe5b90602001906020020151612099565b8460026003811015156109d457fe5b60200201511415156109e557600080fd5b896040518082805190602001908083835b602083101515610a1b57805182526020820191506020810190506020830392506109f6565b6001836020036101000a03801982511681845116808217855250505050505090500191505060405180910390209250828860405180836000191660001916815260200182805190602001908083835b602083101515610a8f5780518252602082019150602081019050602083039250610a6a565b6001836020036101000a03801982511681845116808217855250505050505090500192505050604051809103902091508288600160008e6000600381101515610ad457fe5b602002015181526020019081526020016000206000015460405180846000191660001916815260200183805190602001908083835b602083101515610b2e5780518252602082019150602081019050602083039250610b09565b6001836020036101000a0380198251168184511680821785525050505050509050018260001916600019168152602001935050505060405180910390209050610b7781886120e1565b73ffffffffffffffffffffffffffffffffffffffff166005600087815260200190815260200160002060000160009054906101000a900473ffffffffffffffffffffffffffffffffffffffff1673ffffffffffffffffffffffffffffffffffffffff16141515610be657600080fd5b610c3d8b6001600381101515610bf857fe5b6020020151600160008e6000600381101515610c1057fe5b60200201518152602001908152602001600020600001548b85600019166121df909392919063ffffffff16565b1515610c4857600080fd5b610c9c600454600260003373ffffffffffffffffffffffffffffffffffffffff1673ffffffffffffffffffffffffffffffffffffffff168152602001908152602001600020546122bc90919063ffffffff16565b600260003373ffffffffffffffffffffffffffffffffffffffff1673ffffffffffffffffffffffffffffffffffffffff1681526020019081526020016000208190555060056000868152602001908152602001600020600080820160006101000a81549073ffffffffffffffffffffffffffffffffffffffff021916905560018201600090556002820160009055600382016000610d3a9190612988565b50505050505050505050505050565b6000806001600084815260200190815260200160002060000154600160008581526020019081526020016000206001015491509150915091565b610d8b61294c565b600080610d9f610d9a85611f71565b611fcc565b9250600b8351141515610db157600080fd5b600091505b6006821015610dfa576000610de18484815181101515610dd257fe5b90602001906020020151612099565b141515610ded57600080fd5b8180600101925050610db6565b34610e1c846007815181101515610e0d57fe5b90602001906020020151612099565b141515610e2857600080fd5b6000610e4b846009815181101515610e3c57fe5b90602001906020020151612099565b141515610e5757600080fd5b836040518082805190602001908083835b602083101515610e8d5780518252602082019150602081019050602083039250610e68565b6001836020036101000a03801982511681845116808217855250505050505090500191505060405180910390206082604051805910610ec95750595b9080825280601f01601f191660200182016040525060405180836000191660001916815260200182805190602001908083835b602083101515610f215780518252602082019150602081019050602083039250610efc565b6001836020036101000a0380198251168184511680821785525050505050509050019250505060405180910390209050600091505b6010821015610fac5780600883601081101515610f6f57fe5b0154604051808360001916600019168152602001826000191660001916815260200192505050604051809103902090508180600101925050610f56565b60408051908101604052808260001916815260200142815250600160006006548152602001908152602001600020600082015181600001906000191690556020820151816001015590505061100d60016006546122bc90919063ffffffff16565b6006819055507fe1fffcc4923d04b559f4d29a8bfc6cda04eb5b0d3c460751c2402c5c5cc9109c61105584600681518110151561104657fe5b906020019060200201516122da565b34604051808373ffffffffffffffffffffffffffffffffffffffff1673ffffffffffffffffffffffffffffffffffffffff1681526020018281526020019250505060405180910390a150505050565b6000809054906101000a900473ffffffffffffffffffffffffffffffffffffffff1673ffffffffffffffffffffffffffffffffffffffff163373ffffffffffffffffffffffffffffffffffffffff161415156110ff57600080fd5b61111560066007546122bc90919063ffffffff16565b431015151561112357600080fd5b60408051908101604052808260001916815260200142815250600160006006548152602001908152602001600020600082015181600001906000191690556020820151816001015590505061118460016006546122bc90919063ffffffff16565b6006819055504360078190555050565b6000809054906101000a900473ffffffffffffffffffffffffffffffffffffffff1681565b60006111c361299d565b6000600360009054906101000a900473ffffffffffffffffffffffffffffffffffffffff1673ffffffffffffffffffffffffffffffffffffffff1663d6362e976000604051602001526040518163ffffffff167c0100000000000000000000000000000000000000000000000000000000028152600401602060405180830381600087803b151561125357600080fd5b6102c65a03f1151561126457600080fd5b50505060405180519050925060056000848152602001908152602001600020608060405190810160405290816000820160009054906101000a900473ffffffffffffffffffffffffffffffffffffffff1673ffffffffffffffffffffffffffffffffffffffff1673ffffffffffffffffffffffffffffffffffffffff168152602001600182015481526020016002820154815260200160038201600380602002604051908101604052809291908260038015611335576020028201915b815481526020019060010190808311611321575b50505050508152505091505b6000600360009054906101000a900473ffffffffffffffffffffffffffffffffffffffff1673ffffffffffffffffffffffffffffffffffffffff1663bda1504b6000604051602001526040518163ffffffff167c0100000000000000000000000000000000000000000000000000000000028152600401602060405180830381600087803b15156113d157600080fd5b6102c65a03f115156113e257600080fd5b50505060405180519050118015611401575062093a8082604001514203115b156119a957600073ffffffffffffffffffffffffffffffffffffffff16826000015173ffffffffffffffffffffffffffffffffffffffff16141561166957600360009054906101000a900473ffffffffffffffffffffffffffffffffffffffff1673ffffffffffffffffffffffffffffffffffffffff1663b07576ac6000604051602001526040518163ffffffff167c0100000000000000000000000000000000000000000000000000000000028152600401602060405180830381600087803b15156114cd57600080fd5b6102c65a03f115156114de57600080fd5b5050506040518051905050600360009054906101000a900473ffffffffffffffffffffffffffffffffffffffff1673ffffffffffffffffffffffffffffffffffffffff1663d6362e976000604051602001526040518163ffffffff167c0100000000000000000000000000000000000000000000000000000000028152600401602060405180830381600087803b151561157757600080fd5b6102c65a03f1151561158857600080fd5b50505060405180519050925060056000848152602001908152602001600020608060405190810160405290816000820160009054906101000a900473ffffffffffffffffffffffffffffffffffffffff1673ffffffffffffffffffffffffffffffffffffffff1673ffffffffffffffffffffffffffffffffffffffff168152602001600182015481526020016002820154815260200160038201600380602002604051908101604052809291908260038015611659576020028201915b815481526020019060010190808311611645575b5050505050815250509150611341565b61168260045483602001516122bc90919063ffffffff16565b90506116da8160026000856000015173ffffffffffffffffffffffffffffffffffffffff1673ffffffffffffffffffffffffffffffffffffffff168152602001908152602001600020546122bc90919063ffffffff16565b60026000846000015173ffffffffffffffffffffffffffffffffffffffff1673ffffffffffffffffffffffffffffffffffffffff16815260200190815260200160002081905550600360009054906101000a900473ffffffffffffffffffffffffffffffffffffffff1673ffffffffffffffffffffffffffffffffffffffff1663b07576ac6000604051602001526040518163ffffffff167c0100000000000000000000000000000000000000000000000000000000028152600401602060405180830381600087803b15156117af57600080fd5b6102c65a03f115156117c057600080fd5b50505060405180519050925060056000848152602001908152602001600020600080820160006101000a81549073ffffffffffffffffffffffffffffffffffffffff0219169055600182016000905560028201600090556003820160006118279190612988565b5050600360009054906101000a900473ffffffffffffffffffffffffffffffffffffffff1673ffffffffffffffffffffffffffffffffffffffff1663d6362e976000604051602001526040518163ffffffff167c0100000000000000000000000000000000000000000000000000000000028152600401602060405180830381600087803b15156118b757600080fd5b6102c65a03f115156118c857600080fd5b50505060405180519050925060056000848152602001908152602001600020608060405190810160405290816000820160009054906101000a900473ffffffffffffffffffffffffffffffffffffffff1673ffffffffffffffffffffffffffffffffffffffff1673ffffffffffffffffffffffffffffffffffffffff168152602001600182015481526020016002820154815260200160038201600380602002604051908101604052809291908260038015611999576020028201915b815481526020019060010190808311611985575b5050505050815250509150611341565b505050565b6000806119b9612960565b60006005600086815260200190815260200160002060000160009054906101000a900473ffffffffffffffffffffffffffffffffffffffff16600560008781526020019081526020016000206001015460056000888152602001908152602001600020600301600560008981526020019081526020016000206002015481600380602002604051908101604052809291908260038015611a6e576020028201915b815481526020019060010190808311611a5a575b5050505050915093509350935093509193509193565b611a8c61294c565b6000806000611aa2611a9d88611f71565b611fcc565b9350600b8451141515611ab457600080fd5b611aed84896002600381101515611ac757fe5b6020020151600202600601815181101515611ade57fe5b906020019060200201516122da565b73ffffffffffffffffffffffffffffffffffffffff163373ffffffffffffffffffffffffffffffffffffffff16141515611b2657600080fd5b60045434141515611b3657600080fd5b866040518082805190602001908083835b602083101515611b6c5780518252602082019150602081019050602083039250611b47565b6001836020036101000a0380198251168184511680821785525050505050509050019150506040518091039020925082611ba98660006082612321565b60405180836000191660001916815260200182805190602001908083835b602083101515611bec5780518252602082019150602081019050602083039250611bc7565b6001836020036101000a0380198251168184511680821785525050505050509050019250505060405180910390209150611c9283600160008b6000600381101515611c3357fe5b6020020151815260200190815260200160002060000154611c6b876000815181101515611c5c57fe5b90602001906020020151612099565b611c8c886003815181101515611c7d57fe5b90602001906020020151612099565b89612380565b1515611c9d57600080fd5b611cf4886001600381101515611caf57fe5b6020020151600160008b6000600381101515611cc757fe5b60200201518152602001908152602001600020600001548885600019166121df909392919063ffffffff16565b1515611cff57600080fd5b876000600381101515611d0e57fe5b6020020151886001600381101515611d2257fe5b602002015161271002896000600381101515611d3a57fe5b6020020151633b9aca00020101905060006005600083815260200190815260200160002060010154141515611d6e57600080fd5b600360009054906101000a900473ffffffffffffffffffffffffffffffffffffffff1673ffffffffffffffffffffffffffffffffffffffff166390b5561d826040518263ffffffff167c010000000000000000000000000000000000000000000000000000000002815260040180828152602001915050600060405180830381600087803b1515611dfe57600080fd5b6102c65a03f11515611e0f57600080fd5b505050608060405190810160405280611e57868b6002600381101515611e3157fe5b6020020151600202600601815181101515611e4857fe5b906020019060200201516122da565b73ffffffffffffffffffffffffffffffffffffffff168152602001611eab868b6002600381101515611e8557fe5b6020020151600202600701815181101515611e9c57fe5b90602001906020020151612099565b8152602001428152602001898152506005600083815260200190815260200160002060008201518160000160006101000a81548173ffffffffffffffffffffffffffffffffffffffff021916908373ffffffffffffffffffffffffffffffffffffffff1602179055506020820151816001015560408201518160020155606082015181600301906003611f3f9291906129e2565b509050505050505050505050565b60016020528060005260406000206000915090508060000154908060010154905082565b611f79612a22565b600080835191506000821415611fa75760408051908101604052806000815260200160008152509250611fc5565b60208401905060408051908101604052808281526020018381525092505b5050919050565b611fd461294c565b6000611fde612a3c565b6000611fe9856125fa565b1515611ff457600080fd5b611ffd8561262c565b92508260405180591061200d5750595b90808252806020026020018201604052801561204357816020015b612030612a5d565b8152602001906001900390816120285790505b50935061204f856126a6565b91505b61205b826126ee565b156120915761206982612718565b848281518110151561207757fe5b906020019060200201819052508080600101915050612052565b505050919050565b60008060006120a784612774565b15156120b257600080fd5b6120bb846127a5565b9150915060208111156120cd57600080fd5b806020036101000a82510492505050919050565b600080600080604185511415156120fb57600093506121d6565b6020850151925060408501519150606085015160001a9050601b8160ff16101561212657601b810190505b601b8160ff161415801561213e5750601c8160ff1614155b1561214c57600093506121d6565b600186828585604051600081526020016040526000604051602001526040518085600019166000191681526020018460ff1660ff16815260200183600019166000191681526020018260001916600019168152602001945050505050602060405160208103908084039060008661646e5a03f115156121ca57600080fd5b50506020604051035193505b50505092915050565b60008060008061020085511415156121f657600080fd5b879150602090505b610200811115156122a457808501519250600060028881151561221d57fe5b0614156122595781836040518083600019166000191681526020018260001916600019168152602001925050506040518091039020915061228a565b8282604051808360001916600019168152602001826000191660001916815260200192505050604051809103902091505b60028781151561229657fe5b0496506020810190506121fe565b85600019168260001916149350505050949350505050565b60008082840190508381101515156122d057fe5b8091505092915050565b60008060006122e884612774565b15156122f357600080fd5b6122fc846127a5565b9150915060148114151561230f57600080fd5b600c6101000a82510492505050919050565b612329612a77565b612331612a77565b6040519050601f831680820184810186838901015b818310156123635780518352602083019250602081019050612346565b50858452601f19601f830116604052505050809150509392505050565b600061238a612a77565b612392612a77565b61239a612a77565b60008060006123a7612a77565b600060418a518115156123b657fe5b061480156123c75750610104895111155b15156123d257600080fd5b6123df8960006041612321565b96506123ed89604180612321565b95506123fc8960826041612321565b94508c87878e60405180856000191660001916815260200184805190602001908083835b6020831015156124455780518252602082019150602081019050602083039250612420565b6001836020036101000a03801982511681845116808217855250505050505090500183805190602001908083835b6020831015156124985780518252602082019150602081019050602083039250612473565b6001836020036101000a03801982511681845116808217855250505050505090500182600019166000191681526020019450505050506040518091039020935060008b1480156124e8575060008a145b1561252c576124f784866120e1565b73ffffffffffffffffffffffffffffffffffffffff163373ffffffffffffffffffffffffffffffffffffffff161497506125ea565b600192506001915060008b11156125815761254784866120e1565b73ffffffffffffffffffffffffffffffffffffffff166125678e896120e1565b73ffffffffffffffffffffffffffffffffffffffff161492505b60008a11156125dd576125978960c36041612321565b90506125a384826120e1565b73ffffffffffffffffffffffffffffffffffffffff166125c38e886120e1565b73ffffffffffffffffffffffffffffffffffffffff161491505b8280156125e75750815b97505b5050505050505095945050505050565b6000806000836020015114156126135760009150612626565b8260000151905060c0815160001a101591505b50919050565b60008060008060008061263e876125fa565b151561264d576000955061269c565b86600001519350835160001a945061266487612826565b840192506001876020015185010391505b818311151561269857612687836128b2565b830192508080600101915050612675565b8095505b5050505050919050565b6126ae612a3c565b60006126b9836125fa565b15156126c457600080fd5b6126cd83612826565b83600001510190508282600001819052508082602001818152505050919050565b60006126f8612a22565b826000015190508060200151816000015101836020015110915050919050565b612720612a22565b60008061272c846126ee565b156127685783602001519150612741826128b2565b9050818360000181815250508083602001818152505080820184602001818152505061276d565b600080fd5b5050919050565b60008060008360200151141561278d576000915061279f565b8260000151905060c0815160001a1091505b50919050565b60008060008060006127b686612774565b15156127c157600080fd5b85600001519150815160001a925060808310156127e4578194506001935061281e565b60b8831015612802576001866020015103935060018201945061281d565b60b78303905080600187602001510303935060018183010194505b5b505050915091565b6000806000808460200151141561284057600092506128ab565b83600001519050805160001a9150608082101561286057600092506128ab565b60b882108061287c575060c0821015801561287b575060f882105b5b1561288a57600192506128ab565b60c08210156128a157600160b783030192506128ab565b600160f783030192505b5050919050565b600080825160001a905060808110156128ce5760019150612946565b60b88110156128e557600160808203019150612945565b60c081101561290f5760b78103806020036101000a60018501510480820160010193505050612944565b60f881101561292657600160c08203019150612943565b60f78103806020036101000a600185015104808201600101935050505b5b5b5b50919050565b602060405190810160405280600081525090565b6060604051908101604052806003905b60008152602001906001900390816129705790505090565b50600081556001016000815560010160009055565b60c060405190810160405280600073ffffffffffffffffffffffffffffffffffffffff16815260200160008152602001600081526020016129dc612a8b565b81525090565b8260038101928215612a11579160200282015b82811115612a105782518255916020019190600101906129f5565b5b509050612a1e9190612ab3565b5090565b604080519081016040528060008152602001600081525090565b606060405190810160405280612a50612a5d565b8152602001600081525090565b604080519081016040528060008152602001600081525090565b602060405190810160405280600081525090565b6060604051908101604052806003905b6000815260200190600190039081612a9b5790505090565b612ad591905b80821115612ad1576000816000905550600101612ab9565b5090565b905600a165627a7a72305820bb1fdd84258aa9b3aa076e45270afd4d98a9b7336e7219680a55ac23f5c45c8000296060604052341561000f57600080fd5b336000806101000a81548173ffffffffffffffffffffffffffffffffffffffff021916908373ffffffffffffffffffffffffffffffffffffffff160217905550602060405190810160405280600060ff168152506001906001610073929190610081565b5060006002819055506100f8565b8280548282559060005260206000209081019282156100c2579160200282015b828111156100c1578251829060ff169055916020019190600101906100a1565b5b5090506100cf91906100d3565b5090565b6100f591905b808211156100f15760008160009055506001016100d9565b5090565b90565b61074b806101076000396000f30060606040526004361061006d576000357c0100000000000000000000000000000000000000000000000000000000900463ffffffff1680632dcdcd0c1461007257806390b5561d146100a9578063b07576ac146100cc578063bda1504b146100f5578063d6362e971461011e575b600080fd5b341561007d57600080fd5b6100936004808035906020019091905050610147565b6040518082815260200191505060405180910390f35b34156100b457600080fd5b6100ca6004808035906020019091905050610253565b005b34156100d757600080fd5b6100df610301565b6040518082815260200191505060405180910390f35b341561010057600080fd5b610108610404565b6040518082815260200191505060405180910390f35b341561012957600080fd5b61013161040a565b6040518082815260200191505060405180910390f35b6000600254610173600161016560028661042c90919063ffffffff16565b61046790919063ffffffff16565b11156101945761018d60028361042c90919063ffffffff16565b905061024e565b60016101bd60016101af60028661042c90919063ffffffff16565b61046790919063ffffffff16565b8154811015156101c957fe5b90600052602060002090015460016101eb60028561042c90919063ffffffff16565b8154811015156101f757fe5b90600052602060002090015410156102245761021d60028361042c90919063ffffffff16565b905061024e565b61024b600161023d60028561042c90919063ffffffff16565b61046790919063ffffffff16565b90505b919050565b6000809054906101000a900473ffffffffffffffffffffffffffffffffffffffff1673ffffffffffffffffffffffffffffffffffffffff163373ffffffffffffffffffffffffffffffffffffffff161415156102ae57600080fd5b600180548060010182816102c291906106ce565b9160005260206000209001600083909190915055506102ed600160025461046790919063ffffffff16565b6002819055506102fe600254610485565b50565b6000806000809054906101000a900473ffffffffffffffffffffffffffffffffffffffff1673ffffffffffffffffffffffffffffffffffffffff163373ffffffffffffffffffffffffffffffffffffffff1614151561035f57600080fd5b60018081548110151561036e57fe5b9060005260206000209001549050600160025481548110151561038d57fe5b9060005260206000209001546001808154811015156103a857fe5b90600052602060002090018190555060016002548154811015156103c857fe5b9060005260206000209001600090556103ed60016002546105ae90919063ffffffff16565b6002819055506103fd60016105c7565b8091505090565b60025481565b600060018081548110151561041b57fe5b906000526020600020900154905090565b60008060008414156104415760009150610460565b828402905082848281151561045257fe5b0414151561045c57fe5b8091505b5092915050565b600080828401905083811015151561047b57fe5b8091505092915050565b60005b600061049e6002846106b390919063ffffffff16565b11156105aa5760016104ba6002846106b390919063ffffffff16565b8154811015156104c657fe5b9060005260206000209001546001838154811015156104e157fe5b906000526020600020900154101561058f5760016105096002846106b390919063ffffffff16565b81548110151561051557fe5b906000526020600020900154905060018281548110151561053257fe5b90600052602060002090015460016105546002856106b390919063ffffffff16565b81548110151561056057fe5b9060005260206000209001819055508060018381548110151561057f57fe5b9060005260206000209001819055505b6105a36002836106b390919063ffffffff16565b9150610488565b5050565b60008282111515156105bc57fe5b818303905092915050565b6000805b6002546105e260028561042c90919063ffffffff16565b1115156106ae576105f283610147565b915060018281548110151561060357fe5b90600052602060002090015460018481548110151561061e57fe5b90600052602060002090015411156106a65760018381548110151561063f57fe5b906000526020600020900154905060018281548110151561065c57fe5b90600052602060002090015460018481548110151561067757fe5b9060005260206000209001819055508060018381548110151561069657fe5b9060005260206000209001819055505b8192506105cb565b505050565b60008082848115156106c157fe5b0490508091505092915050565b8154818355818115116106f5578183600052602060002091820191016106f491906106fa565b5b505050565b61071c91905b80821115610718576000816000905550600101610700565b5090565b905600a165627a7a723058201994b584d721e24e7caad187cc0e6ad3a463928a2c29c048bc2125a1bb786cba0029",
  "source": "pragma solidity ^0.4.18;\nimport '../Libraries/SafeMath.sol';\nimport '../Libraries/Math.sol';\nimport '../Libraries/RLP.sol';\nimport '../Libraries/Merkle.sol';\nimport '../Libraries/Merkle.sol';\nimport '../Libraries/Validate.sol';\nimport '../DataStructures/PriorityQueue.sol';\n\n\ncontract RootChain {\n    using SafeMath for uint256;\n    using RLP for bytes;\n    using RLP for RLP.RLPItem;\n    using RLP for RLP.Iterator;\n    using Merkle for bytes32;\n\n\n    address public authority;\n\n    /*\n     *  Modifiers\n     */\n    modifier isAuthority() {\n        require(msg.sender == authority);\n        _;\n    }\n\n    /*\n     * Events\n     */\n    event Deposit(address depositor, uint256 amount);\n\n    /*\n     *  Storage\n     */\n    mapping(uint256 => childBlock) public childChain;\n    mapping(address => uint256) public balances;\n\n    // startExit mechanism\n    PriorityQueue exitsQueue;\n    uint256 minExitBond;\n    mapping(uint256 => exit) public exits;\n    struct exit {\n        address owner;\n        uint256 amount;\n        uint256 created_at;\n        uint256[3] utxoPos;\n    }\n\n    // child chain\n    uint256 public currentChildBlock;\n    uint256 public lastParentBlock;\n    struct childBlock {\n        bytes32 root;\n        uint256 created_at;\n    }\n\n    // avoid recomputations\n    bytes32[16] zeroHashes;\n\n    function RootChain()\n        public\n    {\n        authority = msg.sender;\n        currentChildBlock = 1;\n        lastParentBlock = block.number;\n\n        exitsQueue = new PriorityQueue();\n\n        minExitBond = 10000; // minimum bond needed to exit.\n\n        bytes32 zeroBytes;\n        for (uint256 i = 0; i < 16; i += 1) { // depth-16 merkle tree\n            zeroHashes[i] = zeroBytes;\n            zeroBytes = keccak256(zeroBytes, zeroBytes);\n        }\n    }\n\n    /// @param root 32 byte merkleRoot of ChildChain block \n    /// @notice childChain blocks can only be submitted at most every 6 root chain blocks\n    function submitBlock(bytes32 root)\n        public\n        isAuthority\n    {\n        // ensure finality on previous blocks before submitting another\n        require(block.number >= lastParentBlock.add(6));\n        childChain[currentChildBlock] = childBlock({\n            root: root,\n            created_at: block.timestamp\n        });\n\n        currentChildBlock = currentChildBlock.add(1);\n        lastParentBlock = block.number;\n    }\n\n    /// @dev txBytes Length 11 RLP encoding of Transaction excluding signatures\n    /// @notice owner and value should be encoded in Output 1\n    /// @notice hash of txBytes is hashed with a empty signature\n    function deposit(bytes txBytes)\n        public\n        payable\n    {\n        var txList = txBytes.toRLPItem().toList();\n        require(txList.length == 11);\n        for(uint256 i = 0; i < 6; i++) {\n            require(txList[i].toUint() == 0);\n        }\n        require(txList[7].toUint() == msg.value);\n        require(txList[9].toUint() == 0); // second output value must be zero\n\n        /*\n            The signatures are kept seperate from the txBytes to avoid having to\n            recreate the txBytes for the confirmsig after both signatures are created. \n        */\n\n        // construct the merkle root\n        bytes32 root = keccak256(keccak256(txBytes), new bytes(130));\n        for (i = 0; i < 16; i++) {\n            root = keccak256(root, zeroHashes[i]);\n        }\n\n        childChain[currentChildBlock] = childBlock({\n            root: root,\n            created_at: block.timestamp\n        });\n\n        currentChildBlock = currentChildBlock.add(1);\n        Deposit(txList[6].toAddress(), msg.value);\n    }\n\n    function getChildChain(uint256 blockNumber)\n        public\n        view\n        returns (bytes32, uint256)\n    {\n        return (childChain[blockNumber].root, childChain[blockNumber].created_at);\n    }\n\n    function getExit(uint256 priority)\n        public\n        view\n        returns (address, uint256, uint256[3], uint256)\n    {\n        return (exits[priority].owner, exits[priority].amount, exits[priority].utxoPos, exits[priority].created_at);\n    }\n\n    /// @param txPos [0] Plasma block number in which the transaction occured\n    /// @param txPos [1] Transaction Index within the block\n    /// @param txPos [2] Output Index within the transaction (either 0 or 1)\n    /// @param sigs First 130 bytes are signature of transaction and the rest is confirm signature\n    /// @notice Each signature is 65 bytes\n    function startExit(uint256[3] txPos, bytes txBytes, bytes proof, bytes sigs)\n        public\n        payable\n    {\n        // txBytes verification\n        var txList = txBytes.toRLPItem().toList();\n        require(txList.length == 11);\n        require(msg.sender == txList[6 + 2 * txPos[2]].toAddress());\n        require(msg.value == minExitBond);\n\n\n        // creating the correct merkle leaf\n        bytes32 txHash = keccak256(txBytes);\n        bytes32 merkleHash = keccak256(txHash, ByteUtils.slice(sigs, 0, 130));\n        require(Validate.checkSigs(txHash, childChain[txPos[0]].root, txList[0].toUint(), txList[3].toUint(), sigs));\n        require(merkleHash.checkMembership(txPos[1], childChain[txPos[0]].root, proof));\n\n        // one-to-one mapping between priority and exit\n        uint256 priority = 1000000000*txPos[0] + 10000*txPos[1] + txPos[0];\n        require(exits[priority].amount == 0);\n        exitsQueue.insert(priority);\n\n        exits[priority] = exit({\n            owner: txList[6 + 2 * txPos[2]].toAddress(),\n            amount: txList[7 + 2 * txPos[2]].toUint(),\n            utxoPos: txPos,\n            created_at: block.timestamp\n        });\n    }\n\n    /// @param txPos [0] Plasma block number in which the challenger's transaction occured\n    /// @param txPos [1] Transaction Index within the block\n    /// @param txPos [2] Output Index within the transaction (either 0 or 1)\n    function challengeExit(uint256[3] txPos, bytes txBytes, bytes proof, bytes sigs, bytes confirmationSig)\n        public\n    {\n        // txBytes verification\n        var txList = txBytes.toRLPItem().toList();\n        require(txList.length == 11);\n\n        // start-exit verification\n        uint256 priority = 1000000000*txPos[0] + 10000*txPos[1] + txPos[0];\n        uint256[3] memory utxoPos = exits[priority].utxoPos;\n        require(utxoPos[0] == txList[0 + 2 * utxoPos[2]].toUint());\n        require(utxoPos[1] == txList[1 + 2 * utxoPos[2]].toUint());\n        require(utxoPos[2] == txList[2 + 2 * utxoPos[2]].toUint());\n\n        /*\n           Confirmation sig:\n              txHash, sigs, block header\n          */\n        \n        var txHash = keccak256(txBytes);\n        var merkleHash = keccak256(txHash, sigs);\n        var confirmationHash = keccak256(txHash, sigs, childChain[txPos[0]].root);\n\n        // challenge\n        require(exits[priority].owner == ECRecovery.recover(confirmationHash, confirmationSig));\n        require(merkleHash.checkMembership(txPos[1], childChain[txPos[0]].root, proof));\n\n        // exit successfully challenged. Award the sender with the bond\n        balances[msg.sender] = balances[msg.sender].add(minExitBond);\n        delete exits[priority];\n    }\n\n    function finalizeExits()\n        public\n    {\n        // retrieve the lowest priority and the appropriate exit struct\n        uint256 priority = exitsQueue.getMin();\n        exit memory currentExit = exits[priority];\n\n        while (exitsQueue.currentSize() > 0 && (block.timestamp - currentExit.created_at) > 1 weeks) {\n            if (currentExit.owner == address(0)) {\n                exitsQueue.delMin(); // delete priority of already deleted exit.\n                // move onto the next oldest exit\n                priority = exitsQueue.getMin();\n                currentExit = exits[priority];\n                continue; // Prevent incorrect processing of deleted exits.\n            }\n\n            // prevent a potential DoS attack if from someone purposely reverting a payment\n            uint256 amountToAdd = currentExit.amount.add(minExitBond);\n            balances[currentExit.owner] = balances[currentExit.owner].add(amountToAdd);\n\n            // delete the finalized exit\n            priority = exitsQueue.delMin();\n            delete exits[priority];\n\n            // move onto the next oldest exit\n            priority = exitsQueue.getMin();\n            currentExit = exits[priority];\n        }\n    }\n\n    function withdraw()\n        public\n        returns (uint256)\n    {\n        if (balances[msg.sender] == 0) {\n            return 0;\n        }\n\n        uint256 transferAmount = balances[msg.sender];\n        delete balances[msg.sender];\n        \n        // will revert the above deletions if fails\n        msg.sender.transfer(transferAmount);\n        return transferAmount;\n    }\n}\n",
  "sourcePath": "/Users/adityasripal/plasma/plasma-mvp-rootchain/contracts/RootChain/RootChain.sol",
  "compiler": {
    "name": "solc",
    "version": "0.4.19+commit.c4cbbb05.Emscripten.clang"
  },
  "schemaVersion": "2.0.0",
  "updatedAt": "2018-03-22T00:40:13.916Z"
}